2023-03-09 09:30:04.721 [SystemA] (INFO) : 8=FIX.4.2|9=135|35=D|34=1|49=SystemA|52=20230309-09:30:04.721|56=DEST|11=dc7cc74f|1=ACC002|55=BTCUSD|54=2|15=USD|60=20230309-09:30:04.721|21=1|100=CME|10=035|
2023-03-09 09:30:05.063 [SystemA] (INFO) : 8=FIX.4.2|9=159|35=8|34=2|49=DEST|52=20230309-09:30:04.721|56=SystemA|17=6e7c6a2b|11=dc7cc74f|37=434a7718|150=0|39=0|1=ACC002|55=BTCUSD|54=2|15=USD|60=2023-03-09-09:30:05.063|10=097|
2023-03-09 09:30:08.669 [SystemA] (INFO) : 8=FIX.4.2|9=122|35=D|34=4|49=SystemA|52=20230309-09:30:08.669|56=DEST|11=3215de0b|1=ACC001|55=BTCUSD|54=1|15=USD|60=20230309-09:30:08.669|10=089|
2023-03-09 09:30:09.077 [SystemA] (INFO) : 8=FIX.4.2|9=172|35=8|34=5|49=DEST|52=20230309-09:30:08.669|56=SystemA|17=e48c45c6|11=3215de0b|37=cd8daf08|150=0|39=0|1=ACC001|55=BTCUSD|54=1|15=USD|60=2023-03-09-09:30:09.077|59=0|100=CME|10=027|
2023-03-09 09:30:10.359 [SystemD] (INFO) : 8=FIX.4.2|9=124|35=D|34=1|49=SystemD|52=20230309-09:30:10.359|56=ABC|11=af8e66db|1=ACC003|55=MSFT|54=2|15=USD|60=20230309-09:30:10.359|21=1|10=149|
2023-03-09 09:30:10.667 [SystemD] (INFO) : 8=FIX.4.2|9=161|35=8|34=2|49=ABC|52=20230309-09:30:10.359|56=SystemD|17=42388447|11=af8e66db|37=a0e61ce8|150=0|39=0|1=ACC003|55=MSFT|54=2|15=USD|60=2023-03-09-09:30:10.667|59=1|10=035|
2023-03-09 09:30:13.354 [SystemD] (INFO) : 8=FIX.4.2|9=156|35=8|34=3|49=ABC|52=20230309-09:30:10.359|56=SystemD|17=7d12db52|11=af8e66db|37=a0e61ce8|150=4|39=4|1=ACC003|55=MSFT|54=2|15=USD|60=2023-03-09-09:30:13.354|10=210|
2023-03-09 09:30:15.704 [SystemC] (INFO) : 8=FIX.4.4|9=138|35=D|34=1|49=SystemC|52=20230309-09:30:15.704|56=DEST|11=91cff7fa|1=ACC001|55=ETHUSD|54=1|15=USD|60=20230309-09:30:15.704|21=1|59=1|526=P|10=156|
2023-03-09 09:30:15.715 [SystemC] (INFO) : 8=FIX.4.4|9=170|35=8|34=2|49=DEST|52=20230309-09:30:15.704|56=SystemC|17=0c94690a|11=91cff7fa|37=d4e71e16|150=0|39=0|1=ACC001|55=ETHUSD|54=1|15=USD|60=2023-03-09-09:30:15.715|59=3|102=N|10=106|
2023-03-09 09:30:19.250 [SystemC] (INFO) : 8=FIX.4.2|9=120|35=D|34=4|49=SystemC|52=20230309-09:30:19.250|56=DEST|11=b06c25ed|1=ACC001|55=AAPL|54=2|15=USD|60=20230309-09:30:19.250|10=208|
2023-03-09 09:30:19.646 [SystemC] (INFO) : 8=FIX.4.2|9=163|35=8|34=5|49=DEST|52=20230309-09:30:19.250|56=SystemC|17=72a5cd19|11=b06c25ed|37=7cd1c54c|150=0|39=0|1=ACC001|55=AAPL|54=2|15=USD|60=2023-03-09-09:30:19.646|526=A|10=005|
2023-03-09 09:30:22.472 [SystemD] (INFO) : 8=FIX.4.2|9=140|35=D|34=4|49=SystemD|52=20230309-09:30:22.472|56=ABC|11=bf324679|1=ACC003|55=GOOG|54=1|15=USD|60=20230309-09:30:22.472|38=420|59=1|100=NYSE|10=078|
2023-03-09 09:30:22.845 [SystemD] (INFO) : 8=FIX.4.2|9=171|35=8|34=5|49=ABC|52=20230309-09:30:22.472|56=SystemD|17=003d9fbd|11=bf324679|37=d6629a85|150=0|39=0|1=ACC003|55=GOOG|54=1|15=USD|60=2023-03-09-09:30:22.845|100=XNAS|526=P|10=064|
2023-03-09 09:30:26.879 [SystemC] (INFO) : 8=FIX.4.2|9=135|35=D|34=7|49=SystemC|52=20230309-09:30:26.879|56=DEST|11=8e99120d|1=ACC001|55=MSFT|54=2|15=USD|60=20230309-09:30:26.879|22=8|44=435.64|10=114|
2023-03-09 09:30:27.036 [SystemC] (INFO) : 8=FIX.4.2|9=163|35=8|34=8|49=DEST|52=20230309-09:30:26.879|56=SystemC|17=b52f02cb|11=8e99120d|37=ab654c96|150=0|39=0|1=ACC001|55=MSFT|54=2|15=USD|60=2023-03-09-09:30:27.036|102=N|10=213|
2023-03-09 09:30:32.439 [SystemD] (INFO) : 8=FIX.4.2|9=124|35=D|34=7|49=SystemD|52=20230309-09:30:32.439|56=ABC|11=4e3c54ff|1=ACC001|55=MSFT|54=1|15=USD|60=20230309-09:30:32.439|59=0|10=118|
2023-03-09 09:30:32.554 [SystemC] (INFO) : 8=FIX.4.2|9=165|35=8|34=6|49=DEST|52=20230309-09:30:19.250|56=SystemC|17=8454819d|11=b06c25ed|37=7cd1c54c|150=4|39=4|1=ACC001|55=AAPL|54=2|15=USD|60=2023-03-09-09:30:32.554|100=CME|10=060|
2023-03-09 09:30:32.906 [SystemD] (INFO) : 8=FIX.4.2|9=156|35=8|34=8|49=ABC|52=20230309-09:30:32.439|56=SystemD|17=96545940|11=4e3c54ff|37=2cc167c7|150=0|39=0|1=ACC001|55=MSFT|54=1|15=USD|60=2023-03-09-09:30:32.906|10=243|
2023-03-09 09:30:33.609 [SystemB] (INFO) : 8=FIX.4.4|9=132|35=D|34=1|49=SystemB|52=20230309-09:30:33.609|56=DEST|11=75b3ad29|1=ACC003|55=GBPUSD|54=2|15=USD|60=20230309-09:30:33.609|100=FOREX|10=171|
2023-03-09 09:30:33.976 [SystemB] (INFO) : 8=FIX.4.4|9=179|35=8|34=2|49=DEST|52=20230309-09:30:33.609|56=SystemB|17=5236c2b7|11=75b3ad29|37=cdd8a082|150=0|39=0|1=ACC003|55=GBPUSD|54=2|15=USD|60=2023-03-09-09:30:33.976|59=1|100=NYSE|526=P|10=087|
2023-03-09 09:30:34.948 [SystemA] (INFO) : 8=FIX.4.4|9=133|35=D|34=7|49=SystemA|52=20230309-09:30:34.948|56=DEST|11=a1825b66|1=ACC002|55=BTCUSD|54=1|15=USD|60=20230309-09:30:34.948|22=8|102=Y|10=060|
2023-03-09 09:30:35.369 [SystemA] (INFO) : 8=FIX.4.4|9=159|35=8|34=8|49=DEST|52=20230309-09:30:34.948|56=SystemA|17=81389835|11=a1825b66|37=c47c6b63|150=0|39=0|1=ACC002|55=BTCUSD|54=1|15=USD|60=2023-03-09-09:30:35.369|10=152|
2023-03-09 09:30:36.897 [SystemA] (INFO) : 8=FIX.4.2|9=167|35=8|34=3|49=DEST|52=20230309-09:30:04.721|56=SystemA|17=b2ed98cc|11=dc7cc74f|37=434a7718|150=2|39=2|1=ACC002|55=BTCUSD|54=2|15=USD|60=2023-03-09-09:30:36.897|100=CME|10=080|
2023-03-09 09:30:38.238 [SystemC] (INFO) : 8=FIX.4.4|9=139|35=D|34=10|49=SystemC|52=20230309-09:30:38.238|56=DEST|11=a03e1c62|1=ACC001|55=ETHUSD|54=1|15=USD|60=20230309-09:30:38.238|21=1|22=8|102=N|10=090|
2023-03-09 09:30:38.458 [SystemC] (INFO) : 8=FIX.4.4|9=166|35=8|34=11|49=DEST|52=20230309-09:30:38.238|56=SystemC|17=a7bd46ab|11=a03e1c62|37=1abab781|150=0|39=0|1=ACC001|55=ETHUSD|54=1|15=USD|60=2023-03-09-09:30:38.458|526=A|10=012|
2023-03-09 09:30:40.843 [SystemC] (INFO) : 8=FIX.4.2|9=168|35=8|34=9|49=DEST|52=20230309-09:30:26.879|56=SystemC|17=df997af3|11=8e99120d|37=ab654c96|150=4|39=4|1=ACC001|55=MSFT|54=2|15=USD|60=2023-03-09-09:30:40.843|59=0|102=Y|10=226|
2023-03-09 09:30:42.882 [SystemC] (INFO) : 8=FIX.4.2|9=160|35=D|34=13|49=SystemC|52=20230309-09:30:42.882|56=DEST|11=d0b3fe8a|1=ACC002|55=ETHUSD|54=2|15=USD|60=20230309-09:30:42.882|21=1|22=8|38=284|44=211.08|100=FOREX|10=010|
2023-03-09 09:30:43.352 [SystemC] (INFO) : 8=FIX.4.2|9=166|35=8|34=14|49=DEST|52=20230309-09:30:42.882|56=SystemC|17=9ea09b07|11=d0b3fe8a|37=c3306f81|150=0|39=0|1=ACC002|55=ETHUSD|54=2|15=USD|60=2023-03-09-09:30:43.352|526=R|10=202|
2023-03-09 09:30:44.159 [SystemC] (INFO) : 8=FIX.4.4|9=171|35=8|34=12|49=DEST|52=20230309-09:30:38.238|56=SystemC|17=9c535b35|11=a03e1c62|37=1abab781|150=F|39=2|1=ACC001|55=ETHUSD|54=1|15=USD|60=2023-03-09-09:30:44.159|59=3|102=N|10=118|
2023-03-09 09:30:44.928 [SystemC] (INFO) : 8=FIX.4.2|9=137|35=D|34=16|49=SystemC|52=20230309-09:30:44.928|56=DEST|11=2e9bee39|1=ACC001|55=EURUSD|54=2|15=USD|60=20230309-09:30:44.928|21=1|100=NYSE|10=198|
2023-03-09 09:30:45.198 [SystemC] (INFO) : 8=FIX.4.2|9=165|35=8|34=17|49=DEST|52=20230309-09:30:44.928|56=SystemC|17=2a879c5b|11=2e9bee39|37=0e01b4e6|150=0|39=0|1=ACC001|55=EURUSD|54=2|15=USD|60=2023-03-09-09:30:45.198|59=3|10=157|
2023-03-09 09:30:45.723 [SystemA] (INFO) : 8=FIX.4.2|9=165|35=8|34=6|49=DEST|52=20230309-09:30:08.669|56=SystemA|17=865b853e|11=3215de0b|37=cd8daf08|150=4|39=4|1=ACC001|55=BTCUSD|54=1|15=USD|60=2023-03-09-09:30:45.723|526=R|10=165|
2023-03-09 09:30:46.959 [SystemA] (INFO) : 8=FIX.4.4|9=135|35=D|34=10|49=SystemA|52=20230309-09:30:46.959|56=DEST|11=585df1ff|1=ACC001|55=ETHUSD|54=1|15=USD|60=20230309-09:30:46.959|22=8|38=220|10=246|
2023-03-09 09:30:47.125 [SystemA] (INFO) : 8=FIX.4.4|9=160|35=8|34=11|49=DEST|52=20230309-09:30:46.959|56=SystemA|17=1450cb6e|11=585df1ff|37=dc2579f8|150=0|39=0|1=ACC001|55=ETHUSD|54=1|15=USD|60=2023-03-09-09:30:47.125|10=176|
2023-03-09 09:30:51.089 [SystemC] (INFO) : 8=FIX.4.2|9=160|35=8|34=15|49=DEST|52=20230309-09:30:42.882|56=SystemC|17=cf970673|11=d0b3fe8a|37=c3306f81|150=4|39=4|1=ACC002|55=ETHUSD|54=2|15=USD|60=2023-03-09-09:30:51.089|10=126|
2023-03-09 09:30:51.319 [SystemA] (INFO) : 8=FIX.4.2|9=143|35=D|34=13|49=SystemA|52=20230309-09:30:51.319|56=DEST|11=1a66fcad|1=ACC002|55=ETHUSD|54=1|15=USD|60=20230309-09:30:51.319|22=8|44=457.64|59=0|10=123|
2023-03-09 09:30:51.512 [SystemC] (INFO) : 8=FIX.4.4|9=164|35=8|34=3|49=DEST|52=20230309-09:30:15.704|56=SystemC|17=018eb333|11=91cff7fa|37=d4e71e16|150=4|39=4|1=ACC001|55=ETHUSD|54=1|15=USD|60=2023-03-09-09:30:51.512|59=1|10=073|
2023-03-09 09:30:51.640 [SystemA] (INFO) : 8=FIX.4.2|9=185|35=8|34=14|49=DEST|52=20230309-09:30:51.319|56=SystemA|17=bac125a0|11=1a66fcad|37=c10c0e74|150=0|39=0|1=ACC002|55=ETHUSD|54=1|15=USD|60=2023-03-09-09:30:51.640|59=3|100=CME|102=N|526=A|10=153|
2023-03-09 09:30:51.925 [SystemB] (INFO) : 8=FIX.4.4|9=165|35=8|34=3|49=DEST|52=20230309-09:30:33.609|56=SystemB|17=c70a7565|11=75b3ad29|37=cdd8a082|150=F|39=2|1=ACC003|55=GBPUSD|54=2|15=USD|60=2023-03-09-09:30:51.925|102=N|10=114|
2023-03-09 09:30:55.550 [SystemC] (INFO) : 8=FIX.4.4|9=128|35=D|34=19|49=SystemC|52=20230309-09:30:55.550|56=DEST|11=ac03dbe9|1=ACC002|55=GBPUSD|54=2|15=USD|60=20230309-09:30:55.550|59=3|10=205|
2023-03-09 09:30:55.730 [SystemC] (INFO) : 8=FIX.4.4|9=160|35=8|34=20|49=DEST|52=20230309-09:30:55.550|56=SystemC|17=8bf464bf|11=ac03dbe9|37=4970721f|150=0|39=0|1=ACC002|55=GBPUSD|54=2|15=USD|60=2023-03-09-09:30:55.730|10=150|
2023-03-09 09:30:59.178 [SystemA] (INFO) : 8=FIX.4.4|9=165|35=8|34=9|49=DEST|52=20230309-09:30:34.948|56=SystemA|17=a8d4a5ef|11=a1825b66|37=c47c6b63|150=F|39=2|1=ACC002|55=BTCUSD|54=1|15=USD|60=2023-03-09-09:30:59.178|102=Y|10=193|
2023-03-09 09:30:59.857 [SystemA] (INFO) : 8=FIX.4.4|9=165|35=8|34=12|49=DEST|52=20230309-09:30:46.959|56=SystemA|17=d94b1a4e|11=585df1ff|37=dc2579f8|150=4|39=4|1=ACC001|55=ETHUSD|54=1|15=USD|60=2023-03-09-09:30:59.857|59=1|10=222|
2023-03-09 09:31:00.557 [SystemD] (INFO) : 8=FIX.4.2|9=134|35=D|34=10|49=SystemD|52=20230309-09:31:00.557|56=ABC|11=50e6a18e|1=ACC002|55=ETHUSD|54=2|15=USD|60=20230309-09:31:00.557|21=1|38=588|10=063|
2023-03-09 09:31:00.609 [SystemD] (INFO) : 8=FIX.4.2|9=168|35=8|34=6|49=ABC|52=20230309-09:30:22.472|56=SystemD|17=db03d2af|11=bf324679|37=d6629a85|150=2|39=2|1=ACC003|55=GOOG|54=1|15=USD|60=2023-03-09-09:31:00.609|100=BINANCE|10=251|
2023-03-09 09:31:00.722 [SystemD] (INFO) : 8=FIX.4.2|9=159|35=8|34=11|49=ABC|52=20230309-09:31:00.557|56=SystemD|17=12c08c5b|11=50e6a18e|37=c3f8284d|150=0|39=0|1=ACC002|55=ETHUSD|54=2|15=USD|60=2023-03-09-09:31:00.722|10=249|
2023-03-09 09:31:02.866 [SystemC] (INFO) : 8=FIX.4.2|9=126|35=D|34=22|49=SystemC|52=20230309-09:31:02.866|56=DEST|11=0f0876ed|1=ACC003|55=GOOG|54=1|15=USD|60=20230309-09:31:02.866|21=1|10=204|
2023-03-09 09:31:02.919 [SystemC] (INFO) : 8=FIX.4.2|9=164|35=8|34=23|49=DEST|52=20230309-09:31:02.866|56=SystemC|17=7f0608b8|11=0f0876ed|37=c1d58ecd|150=0|39=0|1=ACC003|55=GOOG|54=1|15=USD|60=2023-03-09-09:31:02.919|102=Y|10=054|
2023-03-09 09:31:03.330 [SystemC] (INFO) : 8=FIX.4.4|9=160|35=8|34=21|49=DEST|52=20230309-09:30:55.550|56=SystemC|17=0c9af53d|11=ac03dbe9|37=4970721f|150=F|39=2|1=ACC002|55=GBPUSD|54=2|15=USD|60=2023-03-09-09:31:03.330|10=158|
2023-03-09 09:31:03.916 [SystemC] (INFO) : 8=FIX.4.2|9=160|35=8|34=18|49=DEST|52=20230309-09:30:44.928|56=SystemC|17=958fb0df|11=2e9bee39|37=0e01b4e6|150=2|39=2|1=ACC001|55=EURUSD|54=2|15=USD|60=2023-03-09-09:31:03.916|10=234|
2023-03-09 09:31:05.382 [SystemA] (INFO) : 8=FIX.4.2|9=136|35=D|34=16|49=SystemA|52=20230309-09:31:05.382|56=DEST|11=721960b7|1=ACC002|55=GOOG|54=1|15=USD|60=20230309-09:31:05.382|44=303.70|59=3|10=065|
2023-03-09 09:31:05.465 [SystemA] (INFO) : 8=FIX.4.2|9=169|35=8|34=17|49=DEST|52=20230309-09:31:05.382|56=SystemA|17=ba559a4e|11=721960b7|37=e20b14ad|150=0|39=0|1=ACC002|55=GOOG|54=1|15=USD|60=2023-03-09-09:31:05.465|59=3|102=Y|10=208|
2023-03-09 09:31:07.196 [SystemD] (INFO) : 8=FIX.4.2|9=135|35=D|34=13|49=SystemD|52=20230309-09:31:07.196|56=ABC|11=76f0fa9d|1=ACC001|55=GOOG|54=1|15=USD|60=20230309-09:31:07.196|44=32.08|526=R|10=146|
2023-03-09 09:31:07.336 [SystemD] (INFO) : 8=FIX.4.2|9=166|35=8|34=14|49=ABC|52=20230309-09:31:07.196|56=SystemD|17=e31cc613|11=76f0fa9d|37=97382483|150=0|39=0|1=ACC001|55=GOOG|54=1|15=USD|60=2023-03-09-09:31:07.336|100=NYSE|10=034|
2023-03-09 09:31:09.087 [SystemD] (INFO) : 8=FIX.4.2|9=157|35=8|34=15|49=ABC|52=20230309-09:31:07.196|56=SystemD|17=88d1ff4e|11=76f0fa9d|37=97382483|150=4|39=4|1=ACC001|55=GOOG|54=1|15=USD|60=2023-03-09-09:31:09.087|10=099|
2023-03-09 09:31:11.967 [SystemD] (INFO) : 8=FIX.4.4|9=148|35=D|34=16|49=SystemD|52=20230309-09:31:11.967|56=ABC|11=a355f007|1=ACC001|55=GOOG|54=2|15=USD|60=20230309-09:31:11.967|21=1|22=8|100=BINANCE|102=Y|10=249|
2023-03-09 09:31:12.224 [SystemD] (INFO) : 8=FIX.4.4|9=157|35=8|34=17|49=ABC|52=20230309-09:31:11.967|56=SystemD|17=7ccd09c8|11=a355f007|37=a6ae36ee|150=0|39=0|1=ACC001|55=GOOG|54=2|15=USD|60=2023-03-09-09:31:12.224|10=199|
2023-03-09 09:31:12.854 [SystemD] (INFO) : 8=FIX.4.2|9=156|35=8|34=9|49=ABC|52=20230309-09:30:32.439|56=SystemD|17=0e117711|11=4e3c54ff|37=2cc167c7|150=2|39=2|1=ACC001|55=MSFT|54=1|15=USD|60=2023-03-09-09:31:12.854|10=022|
2023-03-09 09:31:13.522 [SystemA] (INFO) : 8=FIX.4.2|9=174|35=8|34=15|49=DEST|52=20230309-09:30:51.319|56=SystemA|17=2ac6af42|11=1a66fcad|37=c10c0e74|150=2|39=2|1=ACC002|55=ETHUSD|54=1|15=USD|60=2023-03-09-09:31:13.522|100=CME|102=Y|10=180|
2023-03-09 09:31:14.728 [SystemC] (INFO) : 8=FIX.4.4|9=131|35=D|34=25|49=SystemC|52=20230309-09:31:14.728|56=DEST|11=9158dd10|1=ACC001|55=AAPL|54=2|15=USD|60=20230309-09:31:14.728|44=312.13|10=134|
2023-03-09 09:31:14.981 [SystemD] (INFO) : 8=FIX.4.4|9=173|35=8|34=18|49=ABC|52=20230309-09:31:11.967|56=SystemD|17=b6300083|11=a355f007|37=a6ae36ee|150=F|39=2|1=ACC001|55=GOOG|54=2|15=USD|60=2023-03-09-09:31:14.981|100=FOREX|526=A|10=186|
2023-03-09 09:31:15.192 [SystemC] (INFO) : 8=FIX.4.4|9=158|35=8|34=26|49=DEST|52=20230309-09:31:14.728|56=SystemC|17=ee7634c1|11=9158dd10|37=ebe0bdd2|150=0|39=0|1=ACC001|55=AAPL|54=2|15=USD|60=2023-03-09-09:31:15.192|10=034|
2023-03-09 09:31:16.121 [SystemB] (INFO) : 8=FIX.4.4|9=128|35=D|34=4|49=SystemB|52=20230309-09:31:16.121|56=DEST|11=77e23946|1=ACC001|55=EURUSD|54=2|15=USD|60=20230309-09:31:16.121|526=A|10=037|
2023-03-09 09:31:16.179 [SystemB] (INFO) : 8=FIX.4.4|9=173|35=8|34=5|49=DEST|52=20230309-09:31:16.121|56=SystemB|17=4cc9f27a|11=77e23946|37=51c1e266|150=0|39=0|1=ACC001|55=EURUSD|54=2|15=USD|60=2023-03-09-09:31:16.179|100=CME|102=N|10=180|
2023-03-09 09:31:17.938 [SystemC] (INFO) : 8=FIX.4.4|9=158|35=8|34=27|49=DEST|52=20230309-09:31:14.728|56=SystemC|17=aa72f8e0|11=9158dd10|37=ebe0bdd2|150=F|39=2|1=ACC001|55=AAPL|54=2|15=USD|60=2023-03-09-09:31:17.938|10=113|
2023-03-09 09:31:18.061 [SystemC] (INFO) : 8=FIX.4.2|9=128|35=D|34=28|49=SystemC|52=20230309-09:31:18.061|56=DEST|11=67a666fb|1=ACC001|55=GBPUSD|54=2|15=USD|60=20230309-09:31:18.061|22=8|10=108|
2023-03-09 09:31:18.469 [SystemC] (INFO) : 8=FIX.4.2|9=160|35=8|34=29|49=DEST|52=20230309-09:31:18.061|56=SystemC|17=c46d0b91|11=67a666fb|37=82551c91|150=0|39=0|1=ACC001|55=GBPUSD|54=2|15=USD|60=2023-03-09-09:31:18.469|10=020|
2023-03-09 09:31:22.344 [SystemB] (INFO) : 8=FIX.4.2|9=135|35=D|34=7|49=SystemB|52=20230309-09:31:22.344|56=DEST|11=ec84e3e4|1=ACC001|55=AAPL|54=2|15=USD|60=20230309-09:31:22.344|44=253.66|59=3|10=153|
2023-03-09 09:31:22.830 [SystemB] (INFO) : 8=FIX.4.2|9=157|35=8|34=8|49=DEST|52=20230309-09:31:22.344|56=SystemB|17=55ab4d2f|11=ec84e3e4|37=3a93615f|150=0|39=0|1=ACC001|55=AAPL|54=2|15=USD|60=2023-03-09-09:31:22.830|10=190|
2023-03-09 09:31:23.727 [SystemB] (INFO) : 8=FIX.4.4|9=144|35=D|34=10|49=SystemB|52=20230309-09:31:23.727|56=DEST|11=0b977f87|1=ACC002|55=GOOG|54=1|15=USD|60=20230309-09:31:23.727|38=620|44=374.83|526=P|10=024|
2023-03-09 09:31:23.892 [SystemB] (INFO) : 8=FIX.4.4|9=163|35=8|34=11|49=DEST|52=20230309-09:31:23.727|56=SystemB|17=f11e8853|11=0b977f87|37=c948086d|150=0|39=0|1=ACC002|55=GOOG|54=1|15=USD|60=2023-03-09-09:31:23.892|59=3|10=060|
2023-03-09 09:31:24.539 [SystemC] (INFO) : 8=FIX.4.2|9=158|35=8|34=24|49=DEST|52=20230309-09:31:02.866|56=SystemC|17=ee85aff8|11=0f0876ed|37=c1d58ecd|150=2|39=2|1=ACC003|55=GOOG|54=1|15=USD|60=2023-03-09-09:31:24.539|10=173|
2023-03-09 09:31:27.710 [SystemB] (INFO) : 8=FIX.4.2|9=146|35=D|34=13|49=SystemB|52=20230309-09:31:27.710|56=DEST|11=c0de35aa|1=ACC003|55=ETHUSD|54=2|15=USD|60=20230309-09:31:27.710|59=1|100=BINANCE|102=N|10=160|
2023-03-09 09:31:27.856 [SystemB] (INFO) : 8=FIX.4.2|9=168|35=8|34=14|49=DEST|52=20230309-09:31:27.710|56=SystemB|17=5c4e7a34|11=c0de35aa|37=8beab646|150=0|39=0|1=ACC003|55=ETHUSD|54=2|15=USD|60=2023-03-09-09:31:27.856|100=CME|10=165|
2023-03-09 09:31:28.690 [SystemD] (INFO) : 8=FIX.4.2|9=168|35=8|34=12|49=ABC|52=20230309-09:31:00.557|56=SystemD|17=58e14c11|11=50e6a18e|37=c3f8284d|150=4|39=4|1=ACC002|55=ETHUSD|54=2|15=USD|60=2023-03-09-09:31:28.690|100=XNAS|10=237|
2023-03-09 09:31:32.143 [SystemB] (INFO) : 8=FIX.4.4|9=180|35=8|34=6|49=DEST|52=20230309-09:31:16.121|56=SystemB|17=1427038e|11=77e23946|37=51c1e266|150=4|39=4|1=ACC001|55=EURUSD|54=2|15=USD|60=2023-03-09-09:31:32.143|100=NYSE|102=N|526=R|10=178|
2023-03-09 09:31:33.211 [SystemD] (INFO) : 8=FIX.4.4|9=128|35=D|34=19|49=SystemD|52=20230309-09:31:33.211|56=ABC|11=53339024|1=ACC002|55=EURUSD|54=2|15=USD|60=20230309-09:31:33.211|526=A|10=180|
2023-03-09 09:31:33.399 [SystemD] (INFO) : 8=FIX.4.4|9=165|35=8|34=20|49=ABC|52=20230309-09:31:33.211|56=SystemD|17=d1814f22|11=53339024|37=29d8dab0|150=0|39=0|1=ACC002|55=EURUSD|54=2|15=USD|60=2023-03-09-09:31:33.399|526=R|10=163|
2023-03-09 09:31:33.827 [SystemB] (INFO) : 8=FIX.4.2|9=169|35=8|34=15|49=DEST|52=20230309-09:31:27.710|56=SystemB|17=d7579afc|11=c0de35aa|37=8beab646|150=4|39=4|1=ACC003|55=ETHUSD|54=2|15=USD|60=2023-03-09-09:31:33.827|100=NYSE|10=078|
2023-03-09 09:31:35.480 [SystemA] (INFO) : 8=FIX.4.2|9=145|35=D|34=19|49=SystemA|52=20230309-09:31:35.480|56=DEST|11=07abb079|1=ACC002|55=GBPUSD|54=2|15=USD|60=20230309-09:31:35.480|22=8|38=734|44=184.34|10=133|
2023-03-09 09:31:35.792 [SystemA] (INFO) : 8=FIX.4.2|9=171|35=8|34=20|49=DEST|52=20230309-09:31:35.480|56=SystemA|17=543d1e9e|11=07abb079|37=8e0e0a38|150=0|39=0|1=ACC002|55=GBPUSD|54=2|15=USD|60=2023-03-09-09:31:35.792|59=0|526=A|10=093|
2023-03-09 09:31:35.806 [SystemB] (INFO) : 8=FIX.4.4|9=158|35=8|34=12|49=DEST|52=20230309-09:31:23.727|56=SystemB|17=e6987a88|11=0b977f87|37=c948086d|150=F|39=2|1=ACC002|55=GOOG|54=1|15=USD|60=2023-03-09-09:31:35.806|10=135|
2023-03-09 09:31:36.968 [SystemC] (INFO) : 8=FIX.4.2|9=142|35=D|34=31|49=SystemC|52=20230309-09:31:36.968|56=DEST|11=92473f51|1=ACC002|55=AAPL|54=1|15=USD|60=20230309-09:31:36.968|44=249.24|59=0|102=Y|10=125|
2023-03-09 09:31:37.153 [SystemC] (INFO) : 8=FIX.4.2|9=170|35=8|34=32|49=DEST|52=20230309-09:31:36.968|56=SystemC|17=881dbc19|11=92473f51|37=aeff6da5|150=0|39=0|1=ACC002|55=AAPL|54=1|15=USD|60=2023-03-09-09:31:37.153|102=N|526=R|10=079|
2023-03-09 09:31:38.946 [SystemC] (INFO) : 8=FIX.4.4|9=127|35=D|34=34|49=SystemC|52=20230309-09:31:38.946|56=DEST|11=3de1b1df|1=ACC003|55=AAPL|54=2|15=USD|60=20230309-09:31:38.946|526=P|10=132|
2023-03-09 09:31:39.005 [SystemC] (INFO) : 8=FIX.4.4|9=158|35=8|34=35|49=DEST|52=20230309-09:31:38.946|56=SystemC|17=25e8fe0f|11=3de1b1df|37=72d1f63a|150=0|39=0|1=ACC003|55=AAPL|54=2|15=USD|60=2023-03-09-09:31:39.005|10=094|
2023-03-09 09:31:39.147 [SystemC] (INFO) : 8=FIX.4.2|9=166|35=8|34=30|49=DEST|52=20230309-09:31:18.061|56=SystemC|17=f3a7cf62|11=67a666fb|37=82551c91|150=2|39=2|1=ACC001|55=GBPUSD|54=2|15=USD|60=2023-03-09-09:31:39.147|526=P|10=114|
2023-03-09 09:31:41.322 [SystemD] (INFO) : 8=FIX.4.2|9=120|35=D|34=22|49=SystemD|52=20230309-09:31:41.322|56=ABC|11=ee0ab8cd|1=ACC001|55=AAPL|54=2|15=USD|60=20230309-09:31:41.322|10=240|
2023-03-09 09:31:41.412 [SystemD] (INFO) : 8=FIX.4.2|9=162|35=8|34=23|49=ABC|52=20230309-09:31:41.322|56=SystemD|17=7bf64114|11=ee0ab8cd|37=4ea14d89|150=0|39=0|1=ACC001|55=AAPL|54=2|15=USD|60=2023-03-09-09:31:41.412|59=3|10=131|
2023-03-09 09:31:43.118 [SystemB] (INFO) : 8=FIX.4.2|9=132|35=D|34=16|49=SystemB|52=20230309-09:31:43.118|56=DEST|11=e86be777|1=ACC003|55=EURUSD|54=2|15=USD|60=20230309-09:31:43.118|44=35.97|10=083|
2023-03-09 09:31:43.224 [SystemD] (INFO) : 8=FIX.4.4|9=164|35=8|34=21|49=ABC|52=20230309-09:31:33.211|56=SystemD|17=84bfd096|11=53339024|37=29d8dab0|150=F|39=2|1=ACC002|55=EURUSD|54=2|15=USD|60=2023-03-09-09:31:43.224|59=0|10=153|
2023-03-09 09:31:43.418 [SystemB] (INFO) : 8=FIX.4.2|9=172|35=8|34=17|49=DEST|52=20230309-09:31:43.118|56=SystemB|17=9fed2772|11=e86be777|37=5a1b8298|150=0|39=0|1=ACC003|55=EURUSD|54=2|15=USD|60=2023-03-09-09:31:43.418|102=N|526=R|10=179|
2023-03-09 09:31:45.154 [SystemD] (INFO) : 8=FIX.4.2|9=157|35=8|34=24|49=ABC|52=20230309-09:31:41.322|56=SystemD|17=d1d7c8fe|11=ee0ab8cd|37=4ea14d89|150=4|39=4|1=ACC001|55=AAPL|54=2|15=USD|60=2023-03-09-09:31:45.154|10=079|
2023-03-09 09:31:46.346 [SystemA] (INFO) : 8=FIX.4.2|9=168|35=8|34=18|49=DEST|52=20230309-09:31:05.382|56=SystemA|17=4810d10b|11=721960b7|37=e20b14ad|150=2|39=2|1=ACC002|55=GOOG|54=1|15=USD|60=2023-03-09-09:31:46.346|100=FOREX|10=181|
2023-03-09 09:31:46.581 [SystemB] (INFO) : 8=FIX.4.2|9=163|35=8|34=9|49=DEST|52=20230309-09:31:22.344|56=SystemB|17=12de416d|11=ec84e3e4|37=3a93615f|150=4|39=4|1=ACC001|55=AAPL|54=2|15=USD|60=2023-03-09-09:31:46.581|102=N|10=186|
2023-03-09 09:31:46.583 [SystemA] (INFO) : 8=FIX.4.2|9=160|35=8|34=21|49=DEST|52=20230309-09:31:35.480|56=SystemA|17=793bb004|11=07abb079|37=8e0e0a38|150=4|39=4|1=ACC002|55=GBPUSD|54=2|15=USD|60=2023-03-09-09:31:46.583|10=051|
2023-03-09 09:31:48.365 [SystemC] (INFO) : 8=FIX.4.4|9=128|35=D|34=37|49=SystemC|52=20230309-09:31:48.365|56=DEST|11=79d6dc0c|1=ACC003|55=EURUSD|54=1|15=USD|60=20230309-09:31:48.365|59=3|10=199|
2023-03-09 09:31:48.830 [SystemC] (INFO) : 8=FIX.4.4|9=175|35=8|34=38|49=DEST|52=20230309-09:31:48.365|56=SystemC|17=fea1062c|11=79d6dc0c|37=f5eafd28|150=0|39=0|1=ACC003|55=EURUSD|54=1|15=USD|60=2023-03-09-09:31:48.830|100=XNAS|102=N|10=119|
2023-03-09 09:31:53.241 [SystemA] (INFO) : 8=FIX.4.2|9=140|35=D|34=22|49=SystemA|52=20230309-09:31:53.241|56=DEST|11=56d8307c|1=ACC002|55=GBPUSD|54=1|15=USD|60=20230309-09:31:53.241|21=1|38=59|102=N|10=086|
2023-03-09 09:31:53.341 [SystemA] (INFO) : 8=FIX.4.2|9=166|35=8|34=23|49=DEST|52=20230309-09:31:53.241|56=SystemA|17=5a992c58|11=56d8307c|37=cee06a2f|150=0|39=0|1=ACC002|55=GBPUSD|54=1|15=USD|60=2023-03-09-09:31:53.341|102=Y|10=146|
2023-03-09 09:31:56.383 [SystemB] (INFO) : 8=FIX.4.2|9=175|35=8|34=18|49=DEST|52=20230309-09:31:43.118|56=SystemB|17=7236c2fb|11=e86be777|37=5a1b8298|150=4|39=4|1=ACC003|55=EURUSD|54=2|15=USD|60=2023-03-09-09:31:56.383|59=0|100=FOREX|10=156|
2023-03-09 09:31:56.680 [SystemB] (INFO) : 8=FIX.4.4|9=123|35=D|34=19|49=SystemB|52=20230309-09:31:56.680|56=DEST|11=074d6a55|1=ACC001|55=BTCUSD|54=1|15=USD|60=20230309-09:31:56.680|10=103|
2023-03-09 09:31:56.891 [SystemB] (INFO) : 8=FIX.4.4|9=160|35=8|34=20|49=DEST|52=20230309-09:31:56.680|56=SystemB|17=2d318c32|11=074d6a55|37=be0b94a1|150=0|39=0|1=ACC001|55=BTCUSD|54=1|15=USD|60=2023-03-09-09:31:56.891|10=048|
2023-03-09 09:31:58.273 [SystemD] (INFO) : 8=FIX.4.2|9=122|35=D|34=25|49=SystemD|52=20230309-09:31:58.273|56=ABC|11=c191d6c9|1=ACC001|55=GBPUSD|54=2|15=USD|60=20230309-09:31:58.273|10=046|
2023-03-09 09:31:58.450 [SystemD] (INFO) : 8=FIX.4.2|9=170|35=8|34=26|49=ABC|52=20230309-09:31:58.273|56=SystemD|17=70e8e680|11=c191d6c9|37=828454f4|150=0|39=0|1=ACC001|55=GBPUSD|54=2|15=USD|60=2023-03-09-09:31:58.450|59=1|102=Y|10=144|
2023-03-09 09:31:59.834 [SystemC] (INFO) : 8=FIX.4.2|9=158|35=8|34=33|49=DEST|52=20230309-09:31:36.968|56=SystemC|17=79af8976|11=92473f51|37=aeff6da5|150=2|39=2|1=ACC002|55=AAPL|54=1|15=USD|60=2023-03-09-09:31:59.834|10=249|
2023-03-09 09:32:00.455 [SystemA] (INFO) : 8=FIX.4.2|9=121|35=D|34=25|49=SystemA|52=20230309-09:32:00.455|56=DEST|11=d9a329f9|1=ACC002|55=AAPL|54=1|15=USD|60=20230309-09:32:00.455|10=224|
2023-03-09 09:32:00.596 [SystemA] (INFO) : 8=FIX.4.2|9=164|35=8|34=26|49=DEST|52=20230309-09:32:00.455|56=SystemA|17=3f48101e|11=d9a329f9|37=afdfafaa|150=0|39=0|1=ACC002|55=AAPL|54=1|15=USD|60=2023-03-09-09:32:00.596|102=N|10=157|
2023-03-09 09:32:02.300 [SystemA] (INFO) : 8=FIX.4.4|9=130|35=D|34=28|49=SystemA|52=20230309-09:32:02.300|56=DEST|11=4652b470|1=ACC002|55=MSFT|54=2|15=USD|60=20230309-09:32:02.300|44=54.68|10=046|
2023-03-09 09:32:02.350 [SystemA] (INFO) : 8=FIX.4.4|9=172|35=8|34=29|49=DEST|52=20230309-09:32:02.300|56=SystemA|17=d5019e07|11=4652b470|37=2bff105e|150=0|39=0|1=ACC002|55=MSFT|54=2|15=USD|60=2023-03-09-09:32:02.350|59=0|100=XNAS|10=072|
2023-03-09 09:32:05.171 [SystemB] (INFO) : 8=FIX.4.4|9=126|35=D|34=22|49=SystemB|52=20230309-09:32:05.171|56=DEST|11=74a9e30e|1=ACC003|55=GOOG|54=1|15=USD|60=20230309-09:32:05.171|21=1|10=189|
2023-03-09 09:32:05.463 [SystemB] (INFO) : 8=FIX.4.4|9=158|35=8|34=23|49=DEST|52=20230309-09:32:05.171|56=SystemB|17=cfff246e|11=74a9e30e|37=f826c06d|150=0|39=0|1=ACC003|55=GOOG|54=1|15=USD|60=2023-03-09-09:32:05.463|10=056|
2023-03-09 09:32:07.985 [SystemB] (INFO) : 8=FIX.4.2|9=148|35=D|34=25|49=SystemB|52=20230309-09:32:07.985|56=DEST|11=f32cb192|1=ACC003|55=GOOG|54=2|15=USD|60=20230309-09:32:07.985|44=476.89|59=1|102=Y|526=R|10=035|
2023-03-09 09:32:08.034 [SystemB] (INFO) : 8=FIX.4.2|9=158|35=8|34=26|49=DEST|52=20230309-09:32:07.985|56=SystemB|17=8f07209c|11=f32cb192|37=21ac683b|150=0|39=0|1=ACC003|55=GOOG|54=2|15=USD|60=2023-03-09-09:32:08.034|10=164|
2023-03-09 09:32:11.379 [SystemC] (INFO) : 8=FIX.4.2|9=121|35=D|34=40|49=SystemC|52=20230309-09:32:11.379|56=DEST|11=ea4c3083|1=ACC001|55=AAPL|54=1|15=USD|60=20230309-09:32:11.379|10=220|
2023-03-09 09:32:11.783 [SystemC] (INFO) : 8=FIX.4.4|9=172|35=8|34=39|49=DEST|52=20230309-09:31:48.365|56=SystemC|17=5b0a1419|11=79d6dc0c|37=f5eafd28|150=4|39=4|1=ACC003|55=EURUSD|54=1|15=USD|60=2023-03-09-09:32:11.783|102=Y|526=R|10=073|
2023-03-09 09:32:11.854 [SystemC] (INFO) : 8=FIX.4.2|9=158|35=8|34=41|49=DEST|52=20230309-09:32:11.379|56=SystemC|17=7d8dca1f|11=ea4c3083|37=d964f124|150=0|39=0|1=ACC001|55=AAPL|54=1|15=USD|60=2023-03-09-09:32:11.854|10=245|
2023-03-09 09:32:13.819 [SystemD] (INFO) : 8=FIX.4.4|9=127|35=D|34=28|49=SystemD|52=20230309-09:32:13.819|56=ABC|11=c2e99a2d|1=ACC003|55=EURUSD|54=2|15=USD|60=20230309-09:32:13.819|21=1|10=074|
2023-03-09 09:32:14.271 [SystemD] (INFO) : 8=FIX.4.4|9=159|35=8|34=29|49=ABC|52=20230309-09:32:13.819|56=SystemD|17=a3c6398d|11=c2e99a2d|37=3bdefb52|150=0|39=0|1=ACC003|55=EURUSD|54=2|15=USD|60=2023-03-09-09:32:14.271|10=179|
2023-03-09 09:32:15.250 [SystemA] (INFO) : 8=FIX.4.4|9=145|35=D|34=31|49=SystemA|52=20230309-09:32:15.250|56=DEST|11=b1c4fecd|1=ACC002|55=GBPUSD|54=2|15=USD|60=20230309-09:32:15.250|38=441|44=437.85|59=0|10=009|
2023-03-09 09:32:15.287 [SystemA] (INFO) : 8=FIX.4.4|9=169|35=8|34=32|49=DEST|52=20230309-09:32:15.250|56=SystemA|17=ad984c1c|11=b1c4fecd|37=cc5bfcab|150=0|39=0|1=ACC002|55=GBPUSD|54=2|15=USD|60=2023-03-09-09:32:15.287|100=NYSE|10=239|
2023-03-09 09:32:16.293 [SystemB] (INFO) : 8=FIX.4.4|9=126|35=D|34=28|49=SystemB|52=20230309-09:32:16.293|56=DEST|11=95844323|1=ACC003|55=MSFT|54=2|15=USD|60=20230309-09:32:16.293|21=1|10=084|
2023-03-09 09:32:16.697 [SystemB] (INFO) : 8=FIX.4.4|9=164|35=8|34=29|49=DEST|52=20230309-09:32:16.293|56=SystemB|17=0f1ed4ae|11=95844323|37=b4fc7872|150=0|39=0|1=ACC003|55=MSFT|54=2|15=USD|60=2023-03-09-09:32:16.697|526=R|10=245|
2023-03-09 09:32:16.995 [SystemC] (INFO) : 8=FIX.4.4|9=158|35=8|34=36|49=DEST|52=20230309-09:31:38.946|56=SystemC|17=634ba87f|11=3de1b1df|37=72d1f63a|150=4|39=4|1=ACC003|55=AAPL|54=2|15=USD|60=2023-03-09-09:32:16.995|10=069|
2023-03-09 09:32:17.024 [SystemD] (INFO) : 8=FIX.4.4|9=159|35=8|34=30|49=ABC|52=20230309-09:32:13.819|56=SystemD|17=6ce3161b|11=c2e99a2d|37=3bdefb52|150=F|39=2|1=ACC003|55=EURUSD|54=2|15=USD|60=2023-03-09-09:32:17.024|10=184|
2023-03-09 09:32:18.550 [SystemD] (INFO) : 8=FIX.4.2|9=126|35=D|34=31|49=SystemD|52=20230309-09:32:18.550|56=ABC|11=fbca49cd|1=ACC002|55=AAPL|54=2|15=USD|60=20230309-09:32:18.550|526=A|10=039|
2023-03-09 09:32:18.620 [SystemD] (INFO) : 8=FIX.4.2|9=162|35=8|34=32|49=ABC|52=20230309-09:32:18.550|56=SystemD|17=eae9bc83|11=fbca49cd|37=95d18f0b|150=0|39=0|1=ACC002|55=AAPL|54=2|15=USD|60=2023-03-09-09:32:18.620|59=0|10=039|
2023-03-09 09:32:19.122 [SystemA] (INFO) : 8=FIX.4.2|9=171|35=8|34=24|49=DEST|52=20230309-09:31:53.241|56=SystemA|17=c2bb7fc2|11=56d8307c|37=cee06a2f|150=4|39=4|1=ACC002|55=GBPUSD|54=1|15=USD|60=2023-03-09-09:32:19.122|59=3|102=N|10=236|
2023-03-09 09:32:21.031 [SystemD] (INFO) : 8=FIX.4.4|9=122|35=D|34=34|49=SystemD|52=20230309-09:32:21.031|56=ABC|11=09f0bd79|1=ACC002|55=EURUSD|54=2|15=USD|60=20230309-09:32:21.031|10=035|
2023-03-09 09:32:21.199 [SystemD] (INFO) : 8=FIX.4.4|9=159|35=8|34=35|49=ABC|52=20230309-09:32:21.031|56=SystemD|17=172eaa6f|11=09f0bd79|37=36fdfad1|150=0|39=0|1=ACC002|55=EURUSD|54=2|15=USD|60=2023-03-09-09:32:21.199|10=163|
2023-03-09 09:32:22.361 [SystemA] (INFO) : 8=FIX.4.2|9=164|35=8|34=27|49=DEST|52=20230309-09:32:00.455|56=SystemA|17=e56c5ae4|11=d9a329f9|37=afdfafaa|150=4|39=4|1=ACC002|55=AAPL|54=1|15=USD|60=2023-03-09-09:32:22.361|526=A|10=003|
2023-03-09 09:32:24.203 [SystemB] (INFO) : 8=FIX.4.4|9=164|35=8|34=24|49=DEST|52=20230309-09:32:05.171|56=SystemB|17=5ce5e041|11=74a9e30e|37=f826c06d|150=4|39=4|1=ACC003|55=GOOG|54=1|15=USD|60=2023-03-09-09:32:24.203|102=Y|10=247|
2023-03-09 09:32:26.971 [SystemA] (INFO) : 8=FIX.4.2|9=129|35=D|34=34|49=SystemA|52=20230309-09:32:26.971|56=DEST|11=49b99877|1=ACC002|55=BTCUSD|54=2|15=USD|60=20230309-09:32:26.971|102=N|10=113|
2023-03-09 09:32:27.171 [SystemD] (INFO) : 8=FIX.4.4|9=164|35=8|34=36|49=ABC|52=20230309-09:32:21.031|56=SystemD|17=720ee39c|11=09f0bd79|37=36fdfad1|150=4|39=4|1=ACC002|55=EURUSD|54=2|15=USD|60=2023-03-09-09:32:27.171|59=0|10=085|
2023-03-09 09:32:27.192 [SystemA] (INFO) : 8=FIX.4.4|9=174|35=8|34=33|49=DEST|52=20230309-09:32:15.250|56=SystemA|17=92ffef66|11=b1c4fecd|37=cc5bfcab|150=F|39=2|1=ACC002|55=GBPUSD|54=2|15=USD|60=2023-03-09-09:32:27.192|100=CME|526=R|10=210|
2023-03-09 09:32:27.245 [SystemA] (INFO) : 8=FIX.4.2|9=179|35=8|34=35|49=DEST|52=20230309-09:32:26.971|56=SystemA|17=001b1576|11=49b99877|37=4f0eff1e|150=0|39=0|1=ACC002|55=BTCUSD|54=2|15=USD|60=2023-03-09-09:32:27.245|59=0|100=CME|526=A|10=192|
2023-03-09 09:32:28.125 [SystemD] (INFO) : 8=FIX.4.2|9=171|35=8|34=27|49=ABC|52=20230309-09:31:58.273|56=SystemD|17=77974392|11=c191d6c9|37=828454f4|150=2|39=2|1=ACC001|55=GBPUSD|54=2|15=USD|60=2023-03-09-09:32:28.125|102=N|526=R|10=129|
2023-03-09 09:32:29.336 [SystemB] (INFO) : 8=FIX.4.4|9=164|35=8|34=30|49=DEST|52=20230309-09:32:16.293|56=SystemB|17=b433c550|11=95844323|37=b4fc7872|150=F|39=2|1=ACC003|55=MSFT|54=2|15=USD|60=2023-03-09-09:32:29.336|102=N|10=096|
2023-03-09 09:32:32.128 [SystemA] (INFO) : 8=FIX.4.4|9=158|35=8|34=30|49=DEST|52=20230309-09:32:02.300|56=SystemA|17=f070d44a|11=4652b470|37=2bff105e|150=4|39=4|1=ACC002|55=MSFT|54=2|15=USD|60=2023-03-09-09:32:32.128|10=152|
2023-03-09 09:32:32.294 [SystemC] (INFO) : 8=FIX.4.2|9=140|35=D|34=43|49=SystemC|52=20230309-09:32:32.294|56=DEST|11=99daafcf|1=ACC001|55=GBPUSD|54=1|15=USD|60=20230309-09:32:32.294|22=8|38=908|59=0|10=033|
2023-03-09 09:32:32.412 [SystemC] (INFO) : 8=FIX.4.2|9=172|35=8|34=44|49=DEST|52=20230309-09:32:32.294|56=SystemC|17=972a2ef2|11=99daafcf|37=fa7e255b|150=0|39=0|1=ACC001|55=GBPUSD|54=1|15=USD|60=2023-03-09-09:32:32.412|100=BINANCE|10=235|
2023-03-09 09:32:33.823 [SystemB] (INFO) : 8=FIX.4.4|9=160|35=8|34=21|49=DEST|52=20230309-09:31:56.680|56=SystemB|17=c5356e2f|11=074d6a55|37=be0b94a1|150=4|39=4|1=ACC001|55=BTCUSD|54=1|15=USD|60=2023-03-09-09:32:33.823|10=105|
2023-03-09 09:32:35.232 [SystemA] (INFO) : 8=FIX.4.2|9=136|35=D|34=37|49=SystemA|52=20230309-09:32:35.232|56=DEST|11=8e9ca98a|1=ACC003|55=EURUSD|54=2|15=USD|60=20230309-09:32:35.232|38=394|102=N|10=064|
2023-03-09 09:32:35.552 [SystemA] (INFO) : 8=FIX.4.2|9=160|35=8|34=38|49=DEST|52=20230309-09:32:35.232|56=SystemA|17=32a2aa60|11=8e9ca98a|37=45225c6d|150=0|39=0|1=ACC003|55=EURUSD|54=2|15=USD|60=2023-03-09-09:32:35.552|10=116|
2023-03-09 09:32:36.689 [SystemB] (INFO) : 8=FIX.4.4|9=121|35=D|34=31|49=SystemB|52=20230309-09:32:36.689|56=DEST|11=f2bded60|1=ACC003|55=MSFT|54=1|15=USD|60=20230309-09:32:36.689|10=115|
2023-03-09 09:32:37.090 [SystemB] (INFO) : 8=FIX.4.4|9=158|35=8|34=32|49=DEST|52=20230309-09:32:36.689|56=SystemB|17=40203a43|11=f2bded60|37=3ca0737a|150=0|39=0|1=ACC003|55=MSFT|54=1|15=USD|60=2023-03-09-09:32:37.090|10=213|
2023-03-09 09:32:37.470 [SystemA] (INFO) : 8=FIX.4.2|9=160|35=8|34=39|49=DEST|52=20230309-09:32:35.232|56=SystemA|17=2350f2fc|11=8e9ca98a|37=45225c6d|150=2|39=2|1=ACC003|55=EURUSD|54=2|15=USD|60=2023-03-09-09:32:37.470|10=133|
2023-03-09 09:32:37.957 [SystemC] (INFO) : 8=FIX.4.4|9=135|35=D|34=46|49=SystemC|52=20230309-09:32:37.957|56=DEST|11=312d5a54|1=ACC001|55=GBPUSD|54=2|15=USD|60=20230309-09:32:37.957|21=1|38=441|10=135|
2023-03-09 09:32:38.059 [SystemC] (INFO) : 8=FIX.4.4|9=166|35=8|34=47|49=DEST|52=20230309-09:32:37.957|56=SystemC|17=e66fbd51|11=312d5a54|37=c6eefd54|150=0|39=0|1=ACC001|55=GBPUSD|54=2|15=USD|60=2023-03-09-09:32:38.059|526=A|10=001|
2023-03-09 09:32:38.462 [SystemC] (INFO) : 8=FIX.4.2|9=173|35=8|34=42|49=DEST|52=20230309-09:32:11.379|56=SystemC|17=c25d9543|11=ea4c3083|37=d964f124|150=2|39=2|1=ACC001|55=AAPL|54=1|15=USD|60=2023-03-09-09:32:38.462|59=0|100=FOREX|10=155|
2023-03-09 09:32:40.076 [SystemB] (INFO) : 8=FIX.4.4|9=164|35=8|34=33|49=DEST|52=20230309-09:32:36.689|56=SystemB|17=e5be55dd|11=f2bded60|37=3ca0737a|150=F|39=2|1=ACC003|55=MSFT|54=1|15=USD|60=2023-03-09-09:32:40.076|526=R|10=232|
2023-03-09 09:32:40.293 [SystemA] (INFO) : 8=FIX.4.2|9=150|35=D|34=40|49=SystemA|52=20230309-09:32:40.293|56=DEST|11=644f14a3|1=ACC001|55=BTCUSD|54=1|15=USD|60=20230309-09:32:40.293|22=8|44=412.57|102=Y|526=P|10=085|
2023-03-09 09:32:40.650 [SystemA] (INFO) : 8=FIX.4.2|9=170|35=8|34=41|49=DEST|52=20230309-09:32:40.293|56=SystemA|17=f7f90de5|11=644f14a3|37=55330898|150=0|39=0|1=ACC001|55=BTCUSD|54=1|15=USD|60=2023-03-09-09:32:40.650|100=FOREX|10=047|
2023-03-09 09:32:40.838 [SystemB] (INFO) : 8=FIX.4.2|9=164|35=8|34=27|49=DEST|52=20230309-09:32:07.985|56=SystemB|17=3717a52b|11=f32cb192|37=21ac683b|150=2|39=2|1=ACC003|55=GOOG|54=2|15=USD|60=2023-03-09-09:32:40.838|102=N|10=198|
2023-03-09 09:32:41.871 [SystemA] (INFO) : 8=FIX.4.2|9=165|35=8|34=36|49=DEST|52=20230309-09:32:26.971|56=SystemA|17=02e3bd2b|11=49b99877|37=4f0eff1e|150=4|39=4|1=ACC002|55=BTCUSD|54=2|15=USD|60=2023-03-09-09:32:41.871|59=1|10=148|
2023-03-09 09:32:44.460 [SystemC] (INFO) : 8=FIX.4.2|9=128|35=D|34=49|49=SystemC|52=20230309-09:32:44.460|56=DEST|11=5ed40ae7|1=ACC001|55=GBPUSD|54=2|15=USD|60=20230309-09:32:44.460|21=1|10=148|
2023-03-09 09:32:44.721 [SystemC] (INFO) : 8=FIX.4.2|9=168|35=8|34=50|49=DEST|52=20230309-09:32:44.460|56=SystemC|17=0ea98d75|11=5ed40ae7|37=87392795|150=0|39=0|1=ACC001|55=GBPUSD|54=2|15=USD|60=2023-03-09-09:32:44.721|100=CME|10=197|
2023-03-09 09:32:46.932 [SystemB] (INFO) : 8=FIX.4.2|9=148|35=D|34=34|49=SystemB|52=20230309-09:32:46.932|56=DEST|11=afc2367f|1=ACC001|55=ETHUSD|54=2|15=USD|60=20230309-09:32:46.932|22=8|59=0|100=XNAS|102=N|10=178|
2023-03-09 09:32:47.166 [SystemB] (INFO) : 8=FIX.4.2|9=166|35=8|34=35|49=DEST|52=20230309-09:32:46.932|56=SystemB|17=92fa6a95|11=afc2367f|37=51961b79|150=0|39=0|1=ACC001|55=ETHUSD|54=2|15=USD|60=2023-03-09-09:32:47.166|526=A|10=122|
2023-03-09 09:32:49.045 [SystemB] (INFO) : 8=FIX.4.4|9=131|35=D|34=37|49=SystemB|52=20230309-09:32:49.045|56=DEST|11=d406b472|1=ACC003|55=MSFT|54=1|15=USD|60=20230309-09:32:49.045|22=8|59=1|10=141|
2023-03-09 09:32:49.430 [SystemB] (INFO) : 8=FIX.4.4|9=172|35=8|34=38|49=DEST|52=20230309-09:32:49.045|56=SystemB|17=ea59cb4d|11=d406b472|37=f398deca|150=0|39=0|1=ACC003|55=MSFT|54=1|15=USD|60=2023-03-09-09:32:49.430|59=0|100=NYSE|10=102|
2023-03-09 09:32:51.451 [SystemD] (INFO) : 8=FIX.4.2|9=157|35=8|34=33|49=ABC|52=20230309-09:32:18.550|56=SystemD|17=3a322945|11=fbca49cd|37=95d18f0b|150=2|39=2|1=ACC002|55=AAPL|54=2|15=USD|60=2023-03-09-09:32:51.451|10=140|
2023-03-09 09:32:52.877 [SystemB] (INFO) : 8=FIX.4.2|9=139|35=D|34=40|49=SystemB|52=20230309-09:32:52.877|56=DEST|11=6a0685d3|1=ACC003|55=ETHUSD|54=1|15=USD|60=20230309-09:32:52.877|38=812|100=XNAS|10=200|
2023-03-09 09:32:53.025 [SystemB] (INFO) : 8=FIX.4.2|9=166|35=8|34=41|49=DEST|52=20230309-09:32:52.877|56=SystemB|17=d3742fad|11=6a0685d3|37=5547262e|150=0|39=0|1=ACC003|55=ETHUSD|54=1|15=USD|60=2023-03-09-09:32:53.025|526=P|10=070|
2023-03-09 09:32:58.019 [SystemA] (INFO) : 8=FIX.4.4|9=131|35=D|34=43|49=SystemA|52=20230309-09:32:58.019|56=DEST|11=ef74d72a|1=ACC001|55=MSFT|54=1|15=USD|60=20230309-09:32:58.019|22=8|38=9|10=245|
2023-03-09 09:32:58.489 [SystemA] (INFO) : 8=FIX.4.4|9=167|35=8|34=44|49=DEST|52=20230309-09:32:58.019|56=SystemA|17=dc824e77|11=ef74d72a|37=e0257cc1|150=0|39=0|1=ACC001|55=MSFT|54=1|15=USD|60=2023-03-09-09:32:58.489|100=NYSE|10=056|
2023-03-09 09:33:00.150 [SystemB] (INFO) : 8=FIX.4.4|9=139|35=D|34=43|49=SystemB|52=20230309-09:33:00.150|56=DEST|11=23854f98|1=ACC003|55=GOOG|54=2|15=USD|60=20230309-09:33:00.150|38=575|59=1|526=A|10=211|
2023-03-09 09:33:00.643 [SystemB] (INFO) : 8=FIX.4.4|9=158|35=8|34=44|49=DEST|52=20230309-09:33:00.150|56=SystemB|17=d094a5f2|11=23854f98|37=de43f90c|150=0|39=0|1=ACC003|55=GOOG|54=2|15=USD|60=2023-03-09-09:33:00.643|10=164|
2023-03-09 09:33:01.832 [SystemA] (INFO) : 8=FIX.4.4|9=123|35=D|34=46|49=SystemA|52=20230309-09:33:01.832|56=DEST|11=90d83a46|1=ACC003|55=BTCUSD|54=1|15=USD|60=20230309-09:33:01.832|10=089|
2023-03-09 09:33:02.128 [SystemA] (INFO) : 8=FIX.4.4|9=172|35=8|34=47|49=DEST|52=20230309-09:33:01.832|56=SystemA|17=16b10dad|11=90d83a46|37=4325c416|150=0|39=0|1=ACC003|55=BTCUSD|54=1|15=USD|60=2023-03-09-09:33:02.128|102=N|526=R|10=066|
2023-03-09 09:33:03.051 [SystemB] (INFO) : 8=FIX.4.2|9=160|35=8|34=36|49=DEST|52=20230309-09:32:46.932|56=SystemB|17=26b49201|11=afc2367f|37=51961b79|150=4|39=4|1=ACC001|55=ETHUSD|54=2|15=USD|60=2023-03-09-09:33:03.051|10=230|
2023-03-09 09:33:05.495 [SystemA] (INFO) : 8=FIX.4.4|9=149|35=D|34=49|49=SystemA|52=20230309-09:33:05.495|56=DEST|11=d14565f4|1=ACC002|55=AAPL|54=1|15=USD|60=20230309-09:33:05.495|44=486.58|100=BINANCE|102=N|10=143|
2023-03-09 09:33:05.897 [SystemA] (INFO) : 8=FIX.4.4|9=158|35=8|34=50|49=DEST|52=20230309-09:33:05.495|56=SystemA|17=98ee6046|11=d14565f4|37=7410ead8|150=0|39=0|1=ACC002|55=AAPL|54=1|15=USD|60=2023-03-09-09:33:05.897|10=127|
2023-03-09 09:33:08.055 [SystemB] (INFO) : 8=FIX.4.4|9=169|35=8|34=39|49=DEST|52=20230309-09:32:49.045|56=SystemB|17=2ce7d137|11=d406b472|37=f398deca|150=4|39=4|1=ACC003|55=MSFT|54=1|15=USD|60=2023-03-09-09:33:08.055|59=1|526=P|10=049|
2023-03-09 09:33:10.030 [SystemC] (INFO) : 8=FIX.4.2|9=160|35=8|34=45|49=DEST|52=20230309-09:32:32.294|56=SystemC|17=1c59ae64|11=99daafcf|37=fa7e255b|150=2|39=2|1=ACC001|55=GBPUSD|54=1|15=USD|60=2023-03-09-09:33:10.030|10=039|
2023-03-09 09:33:10.475 [SystemD] (INFO) : 8=FIX.4.2|9=133|35=D|34=37|49=SystemD|52=20230309-09:33:10.475|56=ABC|11=4cae77e8|1=ACC001|55=ETHUSD|54=2|15=USD|60=20230309-09:33:10.475|59=0|102=N|10=094|
2023-03-09 09:33:10.924 [SystemD] (INFO) : 8=FIX.4.2|9=172|35=8|34=38|49=ABC|52=20230309-09:33:10.475|56=SystemD|17=bf9d6b14|11=4cae77e8|37=f2611a0e|150=0|39=0|1=ACC001|55=ETHUSD|54=2|15=USD|60=2023-03-09-09:33:10.924|59=1|100=CME|10=233|
2023-03-09 09:33:13.399 [SystemB] (INFO) : 8=FIX.4.4|9=158|35=8|34=45|49=DEST|52=20230309-09:33:00.150|56=SystemB|17=b75a22e5|11=23854f98|37=de43f90c|150=F|39=2|1=ACC003|55=GOOG|54=2|15=USD|60=2023-03-09-09:33:13.399|10=199|
2023-03-09 09:33:13.965 [SystemD] (INFO) : 8=FIX.4.2|9=135|35=D|34=40|49=SystemD|52=20230309-09:33:13.965|56=ABC|11=ec6f4c45|1=ACC001|55=MSFT|54=1|15=USD|60=20230309-09:33:13.965|21=1|22=8|59=0|10=093|
2023-03-09 09:33:14.025 [SystemD] (INFO) : 8=FIX.4.2|9=157|35=8|34=41|49=ABC|52=20230309-09:33:13.965|56=SystemD|17=427b67f4|11=ec6f4c45|37=582d88da|150=0|39=0|1=ACC001|55=MSFT|54=1|15=USD|60=2023-03-09-09:33:14.025|10=134|
2023-03-09 09:33:16.949 [SystemC] (INFO) : 8=FIX.4.4|9=160|35=8|34=48|49=DEST|52=20230309-09:32:37.957|56=SystemC|17=ab718207|11=312d5a54|37=c6eefd54|150=4|39=4|1=ACC001|55=GBPUSD|54=2|15=USD|60=2023-03-09-09:33:16.949|10=134|
2023-03-09 09:33:18.279 [SystemA] (INFO) : 8=FIX.4.2|9=172|35=8|34=42|49=DEST|52=20230309-09:32:40.293|56=SystemA|17=2c5f5b6a|11=644f14a3|37=55330898|150=2|39=2|1=ACC001|55=BTCUSD|54=1|15=USD|60=2023-03-09-09:33:18.279|100=BINANCE|10=163|
2023-03-09 09:33:19.094 [SystemD] (INFO) : 8=FIX.4.2|9=126|35=D|34=43|49=SystemD|52=20230309-09:33:19.094|56=ABC|11=b3253d4f|1=ACC001|55=AAPL|54=1|15=USD|60=20230309-09:33:19.094|526=A|10=159|
2023-03-09 09:33:19.549 [SystemD] (INFO) : 8=FIX.4.2|9=163|35=8|34=44|49=ABC|52=20230309-09:33:19.094|56=SystemD|17=3a5fdbd1|11=b3253d4f|37=829da972|150=0|39=0|1=ACC001|55=AAPL|54=1|15=USD|60=2023-03-09-09:33:19.549|102=N|10=183|
2023-03-09 09:33:19.695 [SystemC] (INFO) : 8=FIX.4.2|9=160|35=8|34=51|49=DEST|52=20230309-09:32:44.460|56=SystemC|17=b597bad4|11=5ed40ae7|37=87392795|150=2|39=2|1=ACC001|55=GBPUSD|54=2|15=USD|60=2023-03-09-09:33:19.695|10=086|
2023-03-09 09:33:20.688 [SystemA] (INFO) : 8=FIX.4.2|9=134|35=D|34=52|49=SystemA|52=20230309-09:33:20.688|56=DEST|11=c6f68208|1=ACC001|55=ETHUSD|54=2|15=USD|60=20230309-09:33:20.688|21=1|102=N|10=102|
2023-03-09 09:33:20.935 [SystemA] (INFO) : 8=FIX.4.2|9=165|35=8|34=53|49=DEST|52=20230309-09:33:20.688|56=SystemA|17=85f459e6|11=c6f68208|37=c39992ee|150=0|39=0|1=ACC001|55=ETHUSD|54=2|15=USD|60=2023-03-09-09:33:20.935|59=1|10=025|
2023-03-09 09:33:22.752 [SystemD] (INFO) : 8=FIX.4.2|9=159|35=8|34=39|49=ABC|52=20230309-09:33:10.475|56=SystemD|17=bf7db527|11=4cae77e8|37=f2611a0e|150=4|39=4|1=ACC001|55=ETHUSD|54=2|15=USD|60=2023-03-09-09:33:22.752|10=121|
2023-03-09 09:33:23.340 [SystemC] (INFO) : 8=FIX.4.2|9=123|35=D|34=52|49=SystemC|52=20230309-09:33:23.340|56=DEST|11=539218aa|1=ACC002|55=EURUSD|54=1|15=USD|60=20230309-09:33:23.340|10=095|
2023-03-09 09:33:23.410 [SystemC] (INFO) : 8=FIX.4.2|9=160|35=8|34=53|49=DEST|52=20230309-09:33:23.340|56=SystemC|17=aa67e580|11=539218aa|37=2a13a36b|150=0|39=0|1=ACC002|55=EURUSD|54=1|15=USD|60=2023-03-09-09:33:23.410|10=045|
2023-03-09 09:33:23.770 [SystemA] (INFO) : 8=FIX.4.4|9=158|35=8|34=51|49=DEST|52=20230309-09:33:05.495|56=SystemA|17=8758b0bb|11=d14565f4|37=7410ead8|150=F|39=2|1=ACC002|55=AAPL|54=1|15=USD|60=2023-03-09-09:33:23.770|10=181|
2023-03-09 09:33:24.444 [SystemD] (INFO) : 8=FIX.4.2|9=168|35=8|34=45|49=ABC|52=20230309-09:33:19.094|56=SystemD|17=11c1b262|11=b3253d4f|37=829da972|150=4|39=4|1=ACC001|55=AAPL|54=1|15=USD|60=2023-03-09-09:33:24.444|59=3|102=Y|10=013|
2023-03-09 09:33:25.183 [SystemC] (INFO) : 8=FIX.4.2|9=160|35=8|34=54|49=DEST|52=20230309-09:33:23.340|56=SystemC|17=251893e9|11=539218aa|37=2a13a36b|150=2|39=2|1=ACC002|55=EURUSD|54=1|15=USD|60=2023-03-09-09:33:25.183|10=228|
2023-03-09 09:33:29.197 [SystemA] (INFO) : 8=FIX.4.4|9=128|35=D|34=55|49=SystemA|52=20230309-09:33:29.197|56=DEST|11=65342fac|1=ACC001|55=GBPUSD|54=1|15=USD|60=20230309-09:33:29.197|59=1|10=128|
2023-03-09 09:33:29.573 [SystemA] (INFO) : 8=FIX.4.4|9=166|35=8|34=56|49=DEST|52=20230309-09:33:29.197|56=SystemA|17=864bc830|11=65342fac|37=bea8cd8b|150=0|39=0|1=ACC001|55=GBPUSD|54=1|15=USD|60=2023-03-09-09:33:29.573|526=R|10=014|
2023-03-09 09:33:29.855 [SystemA] (INFO) : 8=FIX.4.4|9=160|35=8|34=48|49=DEST|52=20230309-09:33:01.832|56=SystemA|17=71ead9bf|11=90d83a46|37=4325c416|150=4|39=4|1=ACC003|55=BTCUSD|54=1|15=USD|60=2023-03-09-09:33:29.855|10=076|
2023-03-09 09:33:31.922 [SystemB] (INFO) : 8=FIX.4.2|9=166|35=8|34=42|49=DEST|52=20230309-09:32:52.877|56=SystemB|17=3408f87d|11=6a0685d3|37=5547262e|150=4|39=4|1=ACC003|55=ETHUSD|54=1|15=USD|60=2023-03-09-09:33:31.922|102=N|10=239|
2023-03-09 09:33:34.129 [SystemC] (INFO) : 8=FIX.4.2|9=133|35=D|34=55|49=SystemC|52=20230309-09:33:34.129|56=DEST|11=3d9ba1bd|1=ACC001|55=MSFT|54=1|15=USD|60=20230309-09:33:34.129|38=912|59=1|10=128|
2023-03-09 09:33:34.244 [SystemC] (INFO) : 8=FIX.4.2|9=175|35=8|34=56|49=DEST|52=20230309-09:33:34.129|56=SystemC|17=73200515|11=3d9ba1bd|37=10c9ea5b|150=0|39=0|1=ACC001|55=MSFT|54=1|15=USD|60=2023-03-09-09:33:34.244|59=0|102=N|526=A|10=229|
2023-03-09 09:33:35.686 [SystemD] (INFO) : 8=FIX.4.2|9=157|35=8|34=42|49=ABC|52=20230309-09:33:13.965|56=SystemD|17=3acfcef6|11=ec6f4c45|37=582d88da|150=2|39=2|1=ACC001|55=MSFT|54=1|15=USD|60=2023-03-09-09:33:35.686|10=086|
2023-03-09 09:33:38.481 [SystemA] (INFO) : 8=FIX.4.4|9=163|35=8|34=45|49=DEST|52=20230309-09:32:58.019|56=SystemA|17=304f1b31|11=ef74d72a|37=e0257cc1|150=4|39=4|1=ACC001|55=MSFT|54=1|15=USD|60=2023-03-09-09:33:38.481|59=1|10=191|
2023-03-09 09:33:38.527 [SystemD] (INFO) : 8=FIX.4.4|9=132|35=D|34=46|49=SystemD|52=20230309-09:33:38.527|56=ABC|11=000956c2|1=ACC001|55=EURUSD|54=1|15=USD|60=20230309-09:33:38.527|44=376.18|10=188|
2023-03-09 09:33:38.683 [SystemD] (INFO) : 8=FIX.4.4|9=178|35=8|34=47|49=ABC|52=20230309-09:33:38.527|56=SystemD|17=c58b75dc|11=000956c2|37=7c0f0755|150=0|39=0|1=ACC001|55=EURUSD|54=1|15=USD|60=2023-03-09-09:33:38.683|59=1|100=CME|102=N|10=109|
2023-03-09 09:33:41.591 [SystemA] (INFO) : 8=FIX.4.2|9=172|35=8|34=54|49=DEST|52=20230309-09:33:20.688|56=SystemA|17=5c6b592d|11=c6f68208|37=c39992ee|150=2|39=2|1=ACC001|55=ETHUSD|54=2|15=USD|60=2023-03-09-09:33:41.591|102=N|526=P|10=174|
2023-03-09 09:33:41.873 [SystemC] (INFO) : 8=FIX.4.2|9=149|35=D|34=58|49=SystemC|52=20230309-09:33:41.873|56=DEST|11=48fd0e0d|1=ACC003|55=GBPUSD|54=1|15=USD|60=20230309-09:33:41.873|59=0|100=XNAS|102=Y|526=P|10=012|
2023-03-09 09:33:42.181 [SystemC] (INFO) : 8=FIX.4.2|9=160|35=8|34=59|49=DEST|52=20230309-09:33:41.873|56=SystemC|17=8090803a|11=48fd0e0d|37=17daf69e|150=0|39=0|1=ACC003|55=GBPUSD|54=1|15=USD|60=2023-03-09-09:33:42.181|10=115|
2023-03-09 09:33:44.019 [SystemC] (INFO) : 8=FIX.4.2|9=158|35=8|34=57|49=DEST|52=20230309-09:33:34.129|56=SystemC|17=056b9dc5|11=3d9ba1bd|37=10c9ea5b|150=4|39=4|1=ACC001|55=MSFT|54=1|15=USD|60=2023-03-09-09:33:44.019|10=116|
2023-03-09 09:33:44.199 [SystemD] (INFO) : 8=FIX.4.4|9=120|35=D|34=49|49=SystemD|52=20230309-09:33:44.199|56=ABC|11=6a9f8540|1=ACC003|55=MSFT|54=1|15=USD|60=20230309-09:33:44.199|10=133|
2023-03-09 09:33:44.229 [SystemD] (INFO) : 8=FIX.4.4|9=163|35=8|34=50|49=ABC|52=20230309-09:33:44.199|56=SystemD|17=81a91934|11=6a9f8540|37=89c4284d|150=0|39=0|1=ACC003|55=MSFT|54=1|15=USD|60=2023-03-09-09:33:44.229|102=Y|10=000|
2023-03-09 09:33:47.195 [SystemD] (INFO) : 8=FIX.4.4|9=129|35=D|34=52|49=SystemD|52=20230309-09:33:47.195|56=ABC|11=32a6bd76|1=ACC001|55=ETHUSD|54=1|15=USD|60=20230309-09:33:47.195|38=396|10=138|
2023-03-09 09:33:47.683 [SystemD] (INFO) : 8=FIX.4.4|9=171|35=8|34=53|49=ABC|52=20230309-09:33:47.195|56=SystemD|17=edf51d10|11=32a6bd76|37=8f7b9056|150=0|39=0|1=ACC001|55=ETHUSD|54=1|15=USD|60=2023-03-09-09:33:47.683|102=N|526=A|10=089|
2023-03-09 09:33:49.542 [SystemD] (INFO) : 8=FIX.4.4|9=137|35=D|34=55|49=SystemD|52=20230309-09:33:49.542|56=ABC|11=ae8128c7|1=ACC002|55=ETHUSD|54=1|15=USD|60=20230309-09:33:49.542|22=8|100=FOREX|10=111|
2023-03-09 09:33:49.992 [SystemD] (INFO) : 8=FIX.4.4|9=168|35=8|34=56|49=ABC|52=20230309-09:33:49.542|56=SystemD|17=cc79f21e|11=ae8128c7|37=547e7044|150=0|39=0|1=ACC002|55=ETHUSD|54=1|15=USD|60=2023-03-09-09:33:49.992|100=XNAS|10=011|
2023-03-09 09:33:50.640 [SystemD] (INFO) : 8=FIX.4.4|9=167|35=8|34=48|49=ABC|52=20230309-09:33:38.527|56=SystemD|17=d03ae6b6|11=000956c2|37=7c0f0755|150=F|39=2|1=ACC001|55=EURUSD|54=1|15=USD|60=2023-03-09-09:33:50.640|100=CME|10=113|
2023-03-09 09:33:51.206 [SystemA] (INFO) : 8=FIX.4.4|9=127|35=D|34=58|49=SystemA|52=20230309-09:33:51.206|56=DEST|11=7f4564e5|1=ACC003|55=AAPL|54=2|15=USD|60=20230309-09:33:51.206|526=R|10=238|
2023-03-09 09:33:51.673 [SystemA] (INFO) : 8=FIX.4.4|9=167|35=8|34=59|49=DEST|52=20230309-09:33:51.206|56=SystemA|17=a2d3db31|11=7f4564e5|37=0d872d3e|150=0|39=0|1=ACC003|55=AAPL|54=2|15=USD|60=2023-03-09-09:33:51.673|100=NYSE|10=219|
2023-03-09 09:33:53.359 [SystemC] (INFO) : 8=FIX.4.4|9=132|35=D|34=61|49=SystemC|52=20230309-09:33:53.359|56=DEST|11=b0630f4d|1=ACC002|55=MSFT|54=1|15=USD|60=20230309-09:33:53.359|21=1|102=N|10=249|
2023-03-09 09:33:53.364 [SystemA] (INFO) : 8=FIX.4.4|9=158|35=8|34=60|49=DEST|52=20230309-09:33:51.206|56=SystemA|17=704fe89d|11=7f4564e5|37=0d872d3e|150=4|39=4|1=ACC003|55=AAPL|54=2|15=USD|60=2023-03-09-09:33:53.364|10=179|
2023-03-09 09:33:53.787 [SystemC] (INFO) : 8=FIX.4.4|9=169|35=8|34=62|49=DEST|52=20230309-09:33:53.359|56=SystemC|17=93ab068a|11=b0630f4d|37=5f94941d|150=0|39=0|1=ACC002|55=MSFT|54=1|15=USD|60=2023-03-09-09:33:53.787|59=1|102=Y|10=209|
2023-03-09 09:33:54.300 [SystemD] (INFO) : 8=FIX.4.4|9=164|35=8|34=54|49=ABC|52=20230309-09:33:47.195|56=SystemD|17=fc3d7c7b|11=32a6bd76|37=8f7b9056|150=F|39=2|1=ACC001|55=ETHUSD|54=1|15=USD|60=2023-03-09-09:33:54.300|59=1|10=063|
2023-03-09 09:33:57.959 [SystemB] (INFO) : 8=FIX.4.2|9=140|35=D|34=46|49=SystemB|52=20230309-09:33:57.959|56=DEST|11=55126df0|1=ACC003|55=GOOG|54=1|15=USD|60=20230309-09:33:57.959|38=402|102=Y|526=R|10=120|
2023-03-09 09:33:58.187 [SystemD] (INFO) : 8=FIX.4.4|9=157|35=8|34=51|49=ABC|52=20230309-09:33:44.199|56=SystemD|17=09428b3f|11=6a9f8540|37=89c4284d|150=4|39=4|1=ACC003|55=MSFT|54=1|15=USD|60=2023-03-09-09:33:58.187|10=024|
2023-03-09 09:33:58.372 [SystemB] (INFO) : 8=FIX.4.2|9=170|35=8|34=47|49=DEST|52=20230309-09:33:57.959|56=SystemB|17=a6bc23db|11=55126df0|37=33f327f3|150=0|39=0|1=ACC003|55=GOOG|54=1|15=USD|60=2023-03-09-09:33:58.372|102=Y|526=A|10=036|
2023-03-09 09:33:58.518 [SystemA] (INFO) : 8=FIX.4.4|9=166|35=8|34=57|49=DEST|52=20230309-09:33:29.197|56=SystemA|17=d92f7775|11=65342fac|37=bea8cd8b|150=F|39=2|1=ACC001|55=GBPUSD|54=1|15=USD|60=2023-03-09-09:33:58.518|526=R|10=053|
2023-03-09 09:33:59.212 [SystemA] (INFO) : 8=FIX.4.2|9=132|35=D|34=61|49=SystemA|52=20230309-09:33:59.212|56=DEST|11=17ecbd31|1=ACC002|55=AAPL|54=2|15=USD|60=20230309-09:33:59.212|59=1|102=N|10=010|
2023-03-09 09:33:59.215 [SystemA] (INFO) : 8=FIX.4.2|9=168|35=8|34=62|49=DEST|52=20230309-09:33:59.212|56=SystemA|17=266ae574|11=17ecbd31|37=48295ad8|150=0|39=0|1=ACC002|55=AAPL|54=2|15=USD|60=2023-03-09-09:33:59.215|100=FOREX|10=245|
2023-03-09 09:34:00.498 [SystemC] (INFO) : 8=FIX.4.4|9=158|35=8|34=63|49=DEST|52=20230309-09:33:53.359|56=SystemC|17=f6ca2acc|11=b0630f4d|37=5f94941d|150=4|39=4|1=ACC002|55=MSFT|54=1|15=USD|60=2023-03-09-09:34:00.498|10=084|
2023-03-09 09:34:01.575 [SystemD] (INFO) : 8=FIX.4.4|9=130|35=D|34=58|49=SystemD|52=20230309-09:34:01.575|56=ABC|11=f0354c89|1=ACC002|55=EURUSD|54=1|15=USD|60=20230309-09:34:01.575|100=CME|10=182|
2023-03-09 09:34:01.749 [SystemD] (INFO) : 8=FIX.4.4|9=165|35=8|34=59|49=ABC|52=20230309-09:34:01.575|56=SystemD|17=5a5e4454|11=f0354c89|37=4c8042d5|150=0|39=0|1=ACC002|55=EURUSD|54=1|15=USD|60=2023-03-09-09:34:01.749|102=N|10=182|
2023-03-09 09:34:04.156 [SystemD] (INFO) : 8=FIX.4.2|9=128|35=D|34=61|49=SystemD|52=20230309-09:34:04.156|56=ABC|11=b9c6ece4|1=ACC001|55=EURUSD|54=2|15=USD|60=20230309-09:34:04.156|102=Y|10=198|
2023-03-09 09:34:04.303 [SystemD] (INFO) : 8=FIX.4.2|9=159|35=8|34=62|49=ABC|52=20230309-09:34:04.156|56=SystemD|17=75260d72|11=b9c6ece4|37=371c0eb1|150=0|39=0|1=ACC001|55=EURUSD|54=2|15=USD|60=2023-03-09-09:34:04.303|10=012|
2023-03-09 09:34:06.382 [SystemC] (INFO) : 8=FIX.4.4|9=134|35=D|34=64|49=SystemC|52=20230309-09:34:06.382|56=DEST|11=cdebbb2e|1=ACC001|55=BTCUSD|54=1|15=USD|60=20230309-09:34:06.382|21=1|526=A|10=059|
2023-03-09 09:34:06.500 [SystemC] (INFO) : 8=FIX.4.4|9=174|35=8|34=65|49=DEST|52=20230309-09:34:06.382|56=SystemC|17=9657b75a|11=cdebbb2e|37=a69fb8da|150=0|39=0|1=ACC001|55=BTCUSD|54=1|15=USD|60=2023-03-09-09:34:06.500|100=CME|102=N|10=038|
2023-03-09 09:34:06.806 [SystemC] (INFO) : 8=FIX.4.2|9=160|35=8|34=60|49=DEST|52=20230309-09:33:41.873|56=SystemC|17=6b803e67|11=48fd0e0d|37=17daf69e|150=4|39=4|1=ACC003|55=GBPUSD|54=1|15=USD|60=2023-03-09-09:34:06.806|10=176|
2023-03-09 09:34:10.251 [SystemC] (INFO) : 8=FIX.4.2|9=158|35=D|34=67|49=SystemC|52=20230309-09:34:10.251|56=DEST|11=45eb1bae|1=ACC003|55=EURUSD|54=1|15=USD|60=20230309-09:34:10.251|22=8|38=999|59=0|100=BINANCE|102=N|10=221|
2023-03-09 09:34:10.257 [SystemC] (INFO) : 8=FIX.4.2|9=160|35=8|34=68|49=DEST|52=20230309-09:34:10.251|56=SystemC|17=a90f8975|11=45eb1bae|37=25c78975|150=0|39=0|1=ACC003|55=EURUSD|54=1|15=USD|60=2023-03-09-09:34:10.257|10=090|
2023-03-09 09:34:11.157 [SystemA] (INFO) : 8=FIX.4.2|9=158|35=8|34=63|49=DEST|52=20230309-09:33:59.212|56=SystemA|17=4dce0356|11=17ecbd31|37=48295ad8|150=4|39=4|1=ACC002|55=AAPL|54=2|15=USD|60=2023-03-09-09:34:11.157|10=206|
2023-03-09 09:34:14.074 [SystemD] (INFO) : 8=FIX.4.2|9=127|35=D|34=64|49=SystemD|52=20230309-09:34:14.074|56=ABC|11=64cedaee|1=ACC003|55=EURUSD|54=1|15=USD|60=20230309-09:34:14.074|21=1|10=157|
2023-03-09 09:34:14.269 [SystemD] (INFO) : 8=FIX.4.2|9=159|35=8|34=65|49=ABC|52=20230309-09:34:14.074|56=SystemD|17=de06794c|11=64cedaee|37=238d1c03|150=0|39=0|1=ACC003|55=EURUSD|54=1|15=USD|60=2023-03-09-09:34:14.269|10=127|
2023-03-09 09:34:17.564 [SystemA] (INFO) : 8=FIX.4.4|9=135|35=D|34=64|49=SystemA|52=20230309-09:34:17.564|56=DEST|11=029d19d6|1=ACC002|55=MSFT|54=1|15=USD|60=20230309-09:34:17.564|100=CME|526=P|10=179|
2023-03-09 09:34:17.768 [SystemA] (INFO) : 8=FIX.4.4|9=163|35=8|34=65|49=DEST|52=20230309-09:34:17.564|56=SystemA|17=164726f1|11=029d19d6|37=1d79173b|150=0|39=0|1=ACC002|55=MSFT|54=1|15=USD|60=2023-03-09-09:34:17.768|59=1|10=022|
2023-03-09 09:34:21.144 [SystemD] (INFO) : 8=FIX.4.2|9=159|35=8|34=63|49=ABC|52=20230309-09:34:04.156|56=SystemD|17=ee1a724a|11=b9c6ece4|37=371c0eb1|150=2|39=2|1=ACC001|55=EURUSD|54=2|15=USD|60=2023-03-09-09:34:21.144|10=156|
2023-03-09 09:34:22.275 [SystemD] (INFO) : 8=FIX.4.4|9=137|35=D|34=67|49=SystemD|52=20230309-09:34:22.275|56=ABC|11=9ee5e10f|1=ACC003|55=EURUSD|54=1|15=USD|60=20230309-09:34:22.275|22=8|44=368.87|10=054|
2023-03-09 09:34:22.516 [SystemD] (INFO) : 8=FIX.4.4|9=159|35=8|34=68|49=ABC|52=20230309-09:34:22.275|56=SystemD|17=e7f9e624|11=9ee5e10f|37=12848722|150=0|39=0|1=ACC003|55=EURUSD|54=1|15=USD|60=2023-03-09-09:34:22.516|10=211|
2023-03-09 09:34:23.590 [SystemA] (INFO) : 8=FIX.4.4|9=158|35=8|34=66|49=DEST|52=20230309-09:34:17.564|56=SystemA|17=975035cb|11=029d19d6|37=1d79173b|150=4|39=4|1=ACC002|55=MSFT|54=1|15=USD|60=2023-03-09-09:34:23.590|10=109|
2023-03-09 09:34:25.461 [SystemA] (INFO) : 8=FIX.4.2|9=127|35=D|34=67|49=SystemA|52=20230309-09:34:25.461|56=DEST|11=c9ed936a|1=ACC002|55=MSFT|54=1|15=USD|60=20230309-09:34:25.461|526=A|10=093|
2023-03-09 09:34:25.496 [SystemA] (INFO) : 8=FIX.4.2|9=164|35=8|34=68|49=DEST|52=20230309-09:34:25.461|56=SystemA|17=0d6254c7|11=c9ed936a|37=41fe0149|150=0|39=0|1=ACC002|55=MSFT|54=1|15=USD|60=2023-03-09-09:34:25.496|526=P|10=237|
2023-03-09 09:34:27.869 [SystemD] (INFO) : 8=FIX.4.4|9=159|35=8|34=57|49=ABC|52=20230309-09:33:49.542|56=SystemD|17=804dc92a|11=ae8128c7|37=547e7044|150=F|39=2|1=ACC002|55=ETHUSD|54=1|15=USD|60=2023-03-09-09:34:27.869|10=230|
2023-03-09 09:34:29.050 [SystemC] (INFO) : 8=FIX.4.2|9=160|35=8|34=69|49=DEST|52=20230309-09:34:10.251|56=SystemC|17=faff4f88|11=45eb1bae|37=25c78975|150=2|39=2|1=ACC003|55=EURUSD|54=1|15=USD|60=2023-03-09-09:34:29.050|10=240|
2023-03-09 09:34:31.146 [SystemD] (INFO) : 8=FIX.4.2|9=130|35=D|34=70|49=SystemD|52=20230309-09:34:31.146|56=ABC|11=12682653|1=ACC002|55=MSFT|54=1|15=USD|60=20230309-09:34:31.146|44=172.72|10=216|
2023-03-09 09:34:31.348 [SystemD] (INFO) : 8=FIX.4.2|9=163|35=8|34=71|49=ABC|52=20230309-09:34:31.146|56=SystemD|17=d58cc889|11=12682653|37=b2922418|150=0|39=0|1=ACC002|55=MSFT|54=1|15=USD|60=2023-03-09-09:34:31.348|526=A|10=176|
2023-03-09 09:34:33.706 [SystemD] (INFO) : 8=FIX.4.4|9=138|35=D|34=73|49=SystemD|52=20230309-09:34:33.706|56=ABC|11=0635b54d|1=ACC002|55=GBPUSD|54=1|15=USD|60=20230309-09:34:33.706|44=327.20|102=Y|10=249|
2023-03-09 09:34:34.090 [SystemD] (INFO) : 8=FIX.4.4|9=165|35=8|34=74|49=ABC|52=20230309-09:34:33.706|56=SystemD|17=892e99cf|11=0635b54d|37=2fb47499|150=0|39=0|1=ACC002|55=GBPUSD|54=1|15=USD|60=2023-03-09-09:34:34.090|526=P|10=238|
2023-03-09 09:34:35.622 [SystemB] (INFO) : 8=FIX.4.2|9=142|35=D|34=49|49=SystemB|52=20230309-09:34:35.622|56=DEST|11=a3712832|1=ACC001|55=AAPL|54=2|15=USD|60=20230309-09:34:35.622|21=1|44=434.10|526=R|10=085|
2023-03-09 09:34:35.706 [SystemB] (INFO) : 8=FIX.4.2|9=172|35=8|34=50|49=DEST|52=20230309-09:34:35.622|56=SystemB|17=2c550ffc|11=a3712832|37=c6f80330|150=0|39=0|1=ACC001|55=AAPL|54=2|15=USD|60=2023-03-09-09:34:35.706|59=0|100=XNAS|10=062|
2023-03-09 09:34:36.631 [SystemD] (INFO) : 8=FIX.4.4|9=165|35=8|34=60|49=ABC|52=20230309-09:34:01.575|56=SystemD|17=d5b05a29|11=f0354c89|37=4c8042d5|150=4|39=4|1=ACC002|55=EURUSD|54=1|15=USD|60=2023-03-09-09:34:36.631|526=A|10=220|
2023-03-09 09:34:37.928 [SystemC] (INFO) : 8=FIX.4.2|9=123|35=D|34=70|49=SystemC|52=20230309-09:34:37.928|56=DEST|11=5a5adc03|1=ACC002|55=GBPUSD|54=1|15=USD|60=20230309-09:34:37.928|10=200|
2023-03-09 09:34:38.058 [SystemC] (INFO) : 8=FIX.4.2|9=171|35=8|34=71|49=DEST|52=20230309-09:34:37.928|56=SystemC|17=43842ca8|11=5a5adc03|37=7426e6fe|150=0|39=0|1=ACC002|55=GBPUSD|54=1|15=USD|60=2023-03-09-09:34:38.058|59=1|526=A|10=116|
2023-03-09 09:34:38.225 [SystemB] (INFO) : 8=FIX.4.2|9=163|35=8|34=48|49=DEST|52=20230309-09:33:57.959|56=SystemB|17=be6942e0|11=55126df0|37=33f327f3|150=2|39=2|1=ACC003|55=GOOG|54=1|15=USD|60=2023-03-09-09:34:38.225|59=0|10=103|
2023-03-09 09:34:40.124 [SystemC] (INFO) : 8=FIX.4.4|9=160|35=8|34=66|49=DEST|52=20230309-09:34:06.382|56=SystemC|17=67e0b75e|11=cdebbb2e|37=a69fb8da|150=4|39=4|1=ACC001|55=BTCUSD|54=1|15=USD|60=2023-03-09-09:34:40.124|10=146|
2023-03-09 09:34:42.181 [SystemD] (INFO) : 8=FIX.4.2|9=165|35=8|34=66|49=ABC|52=20230309-09:34:14.074|56=SystemD|17=fcc3dc03|11=64cedaee|37=238d1c03|150=2|39=2|1=ACC003|55=EURUSD|54=1|15=USD|60=2023-03-09-09:34:42.181|102=N|10=237|
2023-03-09 09:34:43.054 [SystemD] (INFO) : 8=FIX.4.2|9=157|35=8|34=72|49=ABC|52=20230309-09:34:31.146|56=SystemD|17=318b7b1b|11=12682653|37=b2922418|150=4|39=4|1=ACC002|55=MSFT|54=1|15=USD|60=2023-03-09-09:34:43.054|10=135|
2023-03-09 09:34:43.268 [SystemB] (INFO) : 8=FIX.4.2|9=135|35=D|34=52|49=SystemB|52=20230309-09:34:43.268|56=DEST|11=b41a55ca|1=ACC001|55=BTCUSD|54=2|15=USD|60=20230309-09:34:43.268|21=1|38=161|10=209|
2023-03-09 09:34:43.519 [SystemB] (INFO) : 8=FIX.4.2|9=166|35=8|34=53|49=DEST|52=20230309-09:34:43.268|56=SystemB|17=2a50a379|11=b41a55ca|37=8f03e15b|150=0|39=0|1=ACC001|55=BTCUSD|54=2|15=USD|60=2023-03-09-09:34:43.519|526=R|10=147|
2023-03-09 09:34:44.289 [SystemD] (INFO) : 8=FIX.4.4|9=164|35=8|34=69|49=ABC|52=20230309-09:34:22.275|56=SystemD|17=e176c8be|11=9ee5e10f|37=12848722|150=F|39=2|1=ACC003|55=EURUSD|54=1|15=USD|60=2023-03-09-09:34:44.289|59=1|10=249|
2023-03-09 09:34:45.813 [SystemC] (INFO) : 8=FIX.4.4|9=136|35=D|34=73|49=SystemC|52=20230309-09:34:45.813|56=DEST|11=7bcd530b|1=ACC002|55=AAPL|54=2|15=USD|60=20230309-09:34:45.813|44=40.25|102=N|10=221|
2023-03-09 09:34:46.222 [SystemC] (INFO) : 8=FIX.4.4|9=164|35=8|34=74|49=DEST|52=20230309-09:34:45.813|56=SystemC|17=3cfaadaf|11=7bcd530b|37=74d62d5b|150=0|39=0|1=ACC002|55=AAPL|54=2|15=USD|60=2023-03-09-09:34:46.222|526=P|10=220|
2023-03-09 09:34:47.311 [SystemA] (INFO) : 8=FIX.4.2|9=169|35=8|34=69|49=DEST|52=20230309-09:34:25.461|56=SystemA|17=12732551|11=c9ed936a|37=41fe0149|150=2|39=2|1=ACC002|55=MSFT|54=1|15=USD|60=2023-03-09-09:34:47.311|59=0|526=P|10=100|
2023-03-09 09:34:49.774 [SystemA] (INFO) : 8=FIX.4.4|9=139|35=D|34=70|49=SystemA|52=20230309-09:34:49.774|56=DEST|11=d2dba2ea|1=ACC001|55=EURUSD|54=2|15=USD|60=20230309-09:34:49.774|38=4|59=0|102=Y|10=040|
2023-03-09 09:34:50.223 [SystemA] (INFO) : 8=FIX.4.4|9=172|35=8|34=71|49=DEST|52=20230309-09:34:49.774|56=SystemA|17=0a0178a7|11=d2dba2ea|37=b3545942|150=0|39=0|1=ACC001|55=EURUSD|54=2|15=USD|60=2023-03-09-09:34:50.223|100=BINANCE|10=052|
2023-03-09 09:34:53.263 [SystemB] (INFO) : 8=FIX.4.4|9=139|35=D|34=55|49=SystemB|52=20230309-09:34:53.263|56=DEST|11=05ebfaec|1=ACC003|55=ETHUSD|54=2|15=USD|60=20230309-09:34:53.263|44=382.44|526=R|10=052|
2023-03-09 09:34:53.571 [SystemB] (INFO) : 8=FIX.4.4|9=165|35=8|34=56|49=DEST|52=20230309-09:34:53.263|56=SystemB|17=75f81e4e|11=05ebfaec|37=27405a70|150=0|39=0|1=ACC003|55=ETHUSD|54=2|15=USD|60=2023-03-09-09:34:53.571|59=3|10=140|
2023-03-09 09:34:54.740 [SystemD] (INFO) : 8=FIX.4.4|9=177|35=8|34=75|49=ABC|52=20230309-09:34:33.706|56=SystemD|17=2105bce4|11=0635b54d|37=2fb47499|150=F|39=2|1=ACC002|55=GBPUSD|54=1|15=USD|60=2023-03-09-09:34:54.740|100=BINANCE|526=A|10=161|
2023-03-09 09:34:58.051 [SystemC] (INFO) : 8=FIX.4.2|9=160|35=8|34=72|49=DEST|52=20230309-09:34:37.928|56=SystemC|17=c1d8e1ed|11=5a5adc03|37=7426e6fe|150=4|39=4|1=ACC002|55=GBPUSD|54=1|15=USD|60=2023-03-09-09:34:58.051|10=011|
2023-03-09 09:34:58.475 [SystemC] (INFO) : 8=FIX.4.2|9=121|35=D|34=76|49=SystemC|52=20230309-09:34:58.475|56=DEST|11=fcbd5a24|1=ACC001|55=MSFT|54=1|15=USD|60=20230309-09:34:58.475|10=117|
2023-03-09 09:34:58.615 [SystemC] (INFO) : 8=FIX.4.2|9=171|35=8|34=77|49=DEST|52=20230309-09:34:58.475|56=SystemC|17=c1d3e91c|11=fcbd5a24|37=e1fe559c|150=0|39=0|1=ACC001|55=MSFT|54=1|15=USD|60=2023-03-09-09:34:58.615|59=3|100=CME|10=056|
2023-03-09 09:35:00.087 [SystemB] (INFO) : 8=FIX.4.4|9=129|35=D|34=58|49=SystemB|52=20230309-09:35:00.087|56=DEST|11=48d976b4|1=ACC003|55=BTCUSD|54=2|15=USD|60=20230309-09:35:00.087|526=R|10=160|
2023-03-09 09:35:00.327 [SystemB] (INFO) : 8=FIX.4.4|9=165|35=8|34=59|49=DEST|52=20230309-09:35:00.087|56=SystemB|17=6644e008|11=48d976b4|37=13e9530c|150=0|39=0|1=ACC003|55=BTCUSD|54=2|15=USD|60=2023-03-09-09:35:00.327|59=3|10=152|
2023-03-09 09:35:05.442 [SystemA] (INFO) : 8=FIX.4.2|9=131|35=D|34=73|49=SystemA|52=20230309-09:35:05.442|56=DEST|11=b035cece|1=ACC002|55=AAPL|54=2|15=USD|60=20230309-09:35:05.442|22=8|59=3|10=245|
2023-03-09 09:35:05.809 [SystemA] (INFO) : 8=FIX.4.2|9=164|35=8|34=74|49=DEST|52=20230309-09:35:05.442|56=SystemA|17=74e54aff|11=b035cece|37=5cb158bf|150=0|39=0|1=ACC002|55=AAPL|54=2|15=USD|60=2023-03-09-09:35:05.809|526=P|10=181|
2023-03-09 09:35:07.274 [SystemB] (INFO) : 8=FIX.4.4|9=133|35=D|34=61|49=SystemB|52=20230309-09:35:07.274|56=DEST|11=ee57ab4d|1=ACC001|55=BTCUSD|54=1|15=USD|60=20230309-09:35:07.274|44=214.40|10=195|
2023-03-09 09:35:07.397 [SystemB] (INFO) : 8=FIX.4.2|9=160|35=8|34=54|49=DEST|52=20230309-09:34:43.268|56=SystemB|17=1a2049a5|11=b41a55ca|37=8f03e15b|150=4|39=4|1=ACC001|55=BTCUSD|54=2|15=USD|60=2023-03-09-09:35:07.397|10=105|
2023-03-09 09:35:07.503 [SystemB] (INFO) : 8=FIX.4.4|9=160|35=8|34=62|49=DEST|52=20230309-09:35:07.274|56=SystemB|17=59e8d9eb|11=ee57ab4d|37=0890de77|150=0|39=0|1=ACC001|55=BTCUSD|54=1|15=USD|60=2023-03-09-09:35:07.503|10=225|
2023-03-09 09:35:11.058 [SystemB] (INFO) : 8=FIX.4.2|9=123|35=D|34=64|49=SystemB|52=20230309-09:35:11.058|56=DEST|11=fe7683e2|1=ACC002|55=GBPUSD|54=2|15=USD|60=20230309-09:35:11.058|10=149|
2023-03-09 09:35:11.375 [SystemB] (INFO) : 8=FIX.4.2|9=166|35=8|34=65|49=DEST|52=20230309-09:35:11.058|56=SystemB|17=d93d100d|11=fe7683e2|37=91c9d559|150=0|39=0|1=ACC002|55=GBPUSD|54=2|15=USD|60=2023-03-09-09:35:11.375|102=Y|10=121|
2023-03-09 09:35:11.568 [SystemB] (INFO) : 8=FIX.4.2|9=158|35=8|34=51|49=DEST|52=20230309-09:34:35.622|56=SystemB|17=f1590df8|11=a3712832|37=c6f80330|150=2|39=2|1=ACC001|55=AAPL|54=2|15=USD|60=2023-03-09-09:35:11.568|10=060|
2023-03-09 09:35:12.969 [SystemC] (INFO) : 8=FIX.4.4|9=128|35=D|34=79|49=SystemC|52=20230309-09:35:12.969|56=DEST|11=02e76c65|1=ACC001|55=EURUSD|54=1|15=USD|60=20230309-09:35:12.969|21=1|10=102|
2023-03-09 09:35:13.100 [SystemC] (INFO) : 8=FIX.4.4|9=160|35=8|34=80|49=DEST|52=20230309-09:35:12.969|56=SystemC|17=a4fbd65d|11=02e76c65|37=846af8b1|150=0|39=0|1=ACC001|55=EURUSD|54=1|15=USD|60=2023-03-09-09:35:13.100|10=176|
2023-03-09 09:35:15.219 [SystemB] (INFO) : 8=FIX.4.4|9=160|35=8|34=57|49=DEST|52=20230309-09:34:53.263|56=SystemB|17=ef9110b1|11=05ebfaec|37=27405a70|150=4|39=4|1=ACC003|55=ETHUSD|54=2|15=USD|60=2023-03-09-09:35:15.219|10=159|
2023-03-09 09:35:15.342 [SystemD] (INFO) : 8=FIX.4.2|9=130|35=D|34=76|49=SystemD|52=20230309-09:35:15.342|56=ABC|11=d3307f35|1=ACC003|55=MSFT|54=2|15=USD|60=20230309-09:35:15.342|100=FOREX|10=188|
2023-03-09 09:35:15.480 [SystemD] (INFO) : 8=FIX.4.2|9=163|35=8|34=77|49=ABC|52=20230309-09:35:15.342|56=SystemD|17=679ef644|11=d3307f35|37=5f844c11|150=0|39=0|1=ACC003|55=MSFT|54=2|15=USD|60=2023-03-09-09:35:15.480|102=N|10=027|
2023-03-09 09:35:18.670 [SystemA] (INFO) : 8=FIX.4.4|9=133|35=D|34=76|49=SystemA|52=20230309-09:35:18.670|56=DEST|11=bfcf7953|1=ACC002|55=BTCUSD|54=2|15=USD|60=20230309-09:35:18.670|44=397.40|10=178|
2023-03-09 09:35:18.789 [SystemA] (INFO) : 8=FIX.4.4|9=170|35=8|34=77|49=DEST|52=20230309-09:35:18.670|56=SystemA|17=436d4014|11=bfcf7953|37=8cf5ca89|150=0|39=0|1=ACC002|55=BTCUSD|54=2|15=USD|60=2023-03-09-09:35:18.789|100=FOREX|10=230|
2023-03-09 09:35:20.187 [SystemB] (INFO) : 8=FIX.4.2|9=131|35=D|34=67|49=SystemB|52=20230309-09:35:20.187|56=DEST|11=181ba3a7|1=ACC003|55=MSFT|54=1|15=USD|60=20230309-09:35:20.187|21=1|22=8|10=172|
2023-03-09 09:35:20.624 [SystemB] (INFO) : 8=FIX.4.2|9=168|35=8|34=68|49=DEST|52=20230309-09:35:20.187|56=SystemB|17=337cb904|11=181ba3a7|37=f004a603|150=0|39=0|1=ACC003|55=MSFT|54=1|15=USD|60=2023-03-09-09:35:20.624|100=FOREX|10=199|
2023-03-09 09:35:22.199 [SystemC] (INFO) : 8=FIX.4.4|9=164|35=8|34=75|49=DEST|52=20230309-09:34:45.813|56=SystemC|17=5da9029a|11=7bcd530b|37=74d62d5b|150=F|39=2|1=ACC002|55=AAPL|54=2|15=USD|60=2023-03-09-09:35:22.199|102=Y|10=066|
2023-03-09 09:35:22.337 [SystemB] (INFO) : 8=FIX.4.2|9=177|35=8|34=66|49=DEST|52=20230309-09:35:11.058|56=SystemB|17=851be95b|11=fe7683e2|37=91c9d559|150=2|39=2|1=ACC002|55=GBPUSD|54=2|15=USD|60=2023-03-09-09:35:22.337|59=3|102=N|526=P|10=139|
2023-03-09 09:35:24.200 [SystemB] (INFO) : 8=FIX.4.4|9=166|35=8|34=60|49=DEST|52=20230309-09:35:00.087|56=SystemB|17=d8ffd61e|11=48d976b4|37=13e9530c|150=F|39=2|1=ACC003|55=BTCUSD|54=2|15=USD|60=2023-03-09-09:35:24.200|102=Y|10=183|
2023-03-09 09:35:24.508 [SystemA] (INFO) : 8=FIX.4.2|9=158|35=8|34=75|49=DEST|52=20230309-09:35:05.442|56=SystemA|17=ccd8cc48|11=b035cece|37=5cb158bf|150=2|39=2|1=ACC002|55=AAPL|54=2|15=USD|60=2023-03-09-09:35:24.508|10=189|
2023-03-09 09:35:25.342 [SystemC] (INFO) : 8=FIX.4.2|9=169|35=8|34=78|49=DEST|52=20230309-09:34:58.475|56=SystemC|17=a71a37fd|11=fcbd5a24|37=e1fe559c|150=2|39=2|1=ACC001|55=MSFT|54=1|15=USD|60=2023-03-09-09:35:25.342|59=1|102=Y|10=193|
2023-03-09 09:35:25.961 [SystemB] (INFO) : 8=FIX.4.4|9=142|35=D|34=70|49=SystemB|52=20230309-09:35:25.961|56=DEST|11=5c67e98c|1=ACC002|55=EURUSD|54=1|15=USD|60=20230309-09:35:25.961|59=3|100=CME|526=A|10=090|
2023-03-09 09:35:26.041 [SystemB] (INFO) : 8=FIX.4.4|9=165|35=8|34=71|49=DEST|52=20230309-09:35:25.961|56=SystemB|17=8a1fc9fe|11=5c67e98c|37=f8972a22|150=0|39=0|1=ACC002|55=EURUSD|54=1|15=USD|60=2023-03-09-09:35:26.041|59=3|10=172|
2023-03-09 09:35:28.078 [SystemA] (INFO) : 8=FIX.4.2|9=145|35=D|34=79|49=SystemA|52=20230309-09:35:28.078|56=DEST|11=52833270|1=ACC003|55=BTCUSD|54=1|15=USD|60=20230309-09:35:28.078|22=8|38=291|44=386.58|10=023|
2023-03-09 09:35:28.404 [SystemA] (INFO) : 8=FIX.4.2|9=166|35=8|34=80|49=DEST|52=20230309-09:35:28.078|56=SystemA|17=212584f6|11=52833270|37=1741e2eb|150=0|39=0|1=ACC003|55=BTCUSD|54=1|15=USD|60=2023-03-09-09:35:28.404|526=A|10=157|
2023-03-09 09:35:30.132 [SystemA] (INFO) : 8=FIX.4.4|9=160|35=8|34=72|49=DEST|52=20230309-09:34:49.774|56=SystemA|17=10deab31|11=d2dba2ea|37=b3545942|150=4|39=4|1=ACC001|55=EURUSD|54=2|15=USD|60=2023-03-09-09:35:30.132|10=209|
2023-03-09 09:35:30.999 [SystemC] (INFO) : 8=FIX.4.4|9=173|35=8|34=81|49=DEST|52=20230309-09:35:12.969|56=SystemC|17=d5de7d88|11=02e76c65|37=846af8b1|150=4|39=4|1=ACC001|55=EURUSD|54=1|15=USD|60=2023-03-09-09:35:30.999|59=1|100=CME|10=052|
2023-03-09 09:35:31.482 [SystemC] (INFO) : 8=FIX.4.4|9=138|35=D|34=82|49=SystemC|52=20230309-09:35:31.482|56=DEST|11=74491021|1=ACC001|55=ETHUSD|54=2|15=USD|60=20230309-09:35:31.482|59=1|100=FOREX|10=061|
2023-03-09 09:35:31.881 [SystemC] (INFO) : 8=FIX.4.4|9=160|35=8|34=83|49=DEST|52=20230309-09:35:31.482|56=SystemC|17=4b69fafe|11=74491021|37=141eba1a|150=0|39=0|1=ACC001|55=ETHUSD|54=2|15=USD|60=2023-03-09-09:35:31.881|10=109|
2023-03-09 09:35:35.073 [SystemD] (INFO) : 8=FIX.4.4|9=136|35=D|34=79|49=SystemD|52=20230309-09:35:35.073|56=ABC|11=2b111164|1=ACC001|55=GOOG|54=1|15=USD|60=20230309-09:35:35.073|38=406|44=28.43|10=020|
2023-03-09 09:35:35.105 [SystemD] (INFO) : 8=FIX.4.4|9=157|35=8|34=80|49=ABC|52=20230309-09:35:35.073|56=SystemD|17=66e868f6|11=2b111164|37=2d367e66|150=0|39=0|1=ACC001|55=GOOG|54=1|15=USD|60=2023-03-09-09:35:35.105|10=183|
2023-03-09 09:35:38.126 [SystemD] (INFO) : 8=FIX.4.2|9=163|35=8|34=78|49=ABC|52=20230309-09:35:15.342|56=SystemD|17=4aa1695f|11=d3307f35|37=5f844c11|150=2|39=2|1=ACC003|55=MSFT|54=2|15=USD|60=2023-03-09-09:35:38.126|102=Y|10=079|
2023-03-09 09:35:38.427 [SystemB] (INFO) : 8=FIX.4.2|9=158|35=8|34=69|49=DEST|52=20230309-09:35:20.187|56=SystemB|17=20671639|11=181ba3a7|37=f004a603|150=2|39=2|1=ACC003|55=MSFT|54=1|15=USD|60=2023-03-09-09:35:38.427|10=037|
2023-03-09 09:35:38.809 [SystemC] (INFO) : 8=FIX.4.4|9=166|35=8|34=84|49=DEST|52=20230309-09:35:31.482|56=SystemC|17=9df8bf0a|11=74491021|37=141eba1a|150=4|39=4|1=ACC001|55=ETHUSD|54=2|15=USD|60=2023-03-09-09:35:38.809|526=P|10=171|
2023-03-09 09:35:39.100 [SystemC] (INFO) : 8=FIX.4.4|9=132|35=D|34=85|49=SystemC|52=20230309-09:35:39.100|56=DEST|11=a700a597|1=ACC001|55=GOOG|54=2|15=USD|60=20230309-09:35:39.100|22=8|526=R|10=200|
2023-03-09 09:35:39.433 [SystemC] (INFO) : 8=FIX.4.4|9=158|35=8|34=86|49=DEST|52=20230309-09:35:39.100|56=SystemC|17=0dc37a54|11=a700a597|37=da5929f6|150=0|39=0|1=ACC001|55=GOOG|54=2|15=USD|60=2023-03-09-09:35:39.433|10=178|
2023-03-09 09:35:44.291 [SystemC] (INFO) : 8=FIX.4.4|9=170|35=8|34=87|49=DEST|52=20230309-09:35:39.100|56=SystemC|17=271c69d8|11=a700a597|37=da5929f6|150=4|39=4|1=ACC001|55=GOOG|54=2|15=USD|60=2023-03-09-09:35:44.291|102=Y|526=P|10=229|
2023-03-09 09:35:44.772 [SystemD] (INFO) : 8=FIX.4.4|9=137|35=D|34=82|49=SystemD|52=20230309-09:35:44.772|56=ABC|11=bce339b5|1=ACC002|55=EURUSD|54=2|15=USD|60=20230309-09:35:44.772|44=143.50|59=0|10=044|
2023-03-09 09:35:45.200 [SystemD] (INFO) : 8=FIX.4.4|9=159|35=8|34=83|49=ABC|52=20230309-09:35:44.772|56=SystemD|17=40064a20|11=bce339b5|37=8b063c7a|150=0|39=0|1=ACC002|55=EURUSD|54=2|15=USD|60=2023-03-09-09:35:45.200|10=224|
2023-03-09 09:35:45.324 [SystemB] (INFO) : 8=FIX.4.4|9=160|35=8|34=63|49=DEST|52=20230309-09:35:07.274|56=SystemB|17=9b28f787|11=ee57ab4d|37=0890de77|150=4|39=4|1=ACC001|55=BTCUSD|54=1|15=USD|60=2023-03-09-09:35:45.324|10=143|
2023-03-09 09:35:46.114 [SystemA] (INFO) : 8=FIX.4.2|9=160|35=8|34=81|49=DEST|52=20230309-09:35:28.078|56=SystemA|17=3c38d392|11=52833270|37=1741e2eb|150=2|39=2|1=ACC003|55=BTCUSD|54=1|15=USD|60=2023-03-09-09:35:46.114|10=175|
2023-03-09 09:35:47.749 [SystemB] (INFO) : 8=FIX.4.4|9=160|35=8|34=72|49=DEST|52=20230309-09:35:25.961|56=SystemB|17=0d1dc47b|11=5c67e98c|37=f8972a22|150=F|39=2|1=ACC002|55=EURUSD|54=1|15=USD|60=2023-03-09-09:35:47.749|10=181|
2023-03-09 09:35:48.108 [SystemA] (INFO) : 8=FIX.4.4|9=156|35=D|34=82|49=SystemA|52=20230309-09:35:48.108|56=DEST|11=ea1effd5|1=ACC003|55=BTCUSD|54=1|15=USD|60=20230309-09:35:48.108|21=1|22=8|59=3|100=BINANCE|102=N|10=152|
2023-03-09 09:35:48.202 [SystemA] (INFO) : 8=FIX.4.4|9=160|35=8|34=83|49=DEST|52=20230309-09:35:48.108|56=SystemA|17=bd1a89b0|11=ea1effd5|37=69a498f6|150=0|39=0|1=ACC003|55=BTCUSD|54=1|15=USD|60=2023-03-09-09:35:48.202|10=012|
2023-03-09 09:35:49.525 [SystemA] (INFO) : 8=FIX.4.4|9=169|35=8|34=78|49=DEST|52=20230309-09:35:18.670|56=SystemA|17=c5f1dac5|11=bfcf7953|37=8cf5ca89|150=4|39=4|1=ACC002|55=BTCUSD|54=2|15=USD|60=2023-03-09-09:35:49.525|100=NYSE|10=108|
2023-03-09 09:35:49.819 [SystemA] (INFO) : 8=FIX.4.4|9=166|35=8|34=84|49=DEST|52=20230309-09:35:48.108|56=SystemA|17=e2c1dd2c|11=ea1effd5|37=69a498f6|150=F|39=2|1=ACC003|55=BTCUSD|54=1|15=USD|60=2023-03-09-09:35:49.819|102=N|10=134|
2023-03-09 09:35:51.839 [SystemA] (INFO) : 8=FIX.4.4|9=133|35=D|34=85|49=SystemA|52=20230309-09:35:51.839|56=DEST|11=6c85f4cd|1=ACC002|55=EURUSD|54=2|15=USD|60=20230309-09:35:51.839|21=1|22=8|10=156|
2023-03-09 09:35:52.123 [SystemA] (INFO) : 8=FIX.4.4|9=166|35=8|34=86|49=DEST|52=20230309-09:35:51.839|56=SystemA|17=545ceae1|11=6c85f4cd|37=bf08f1af|150=0|39=0|1=ACC002|55=EURUSD|54=2|15=USD|60=2023-03-09-09:35:52.123|102=N|10=110|
2023-03-09 09:35:57.064 [SystemA] (INFO) : 8=FIX.4.4|9=145|35=D|34=88|49=SystemA|52=20230309-09:35:57.064|56=DEST|11=96a8ad0e|1=ACC002|55=BTCUSD|54=2|15=USD|60=20230309-09:35:57.064|21=1|59=0|100=BINANCE|10=067|
2023-03-09 09:35:57.159 [SystemA] (INFO) : 8=FIX.4.4|9=165|35=8|34=89|49=DEST|52=20230309-09:35:57.064|56=SystemA|17=ad30deae|11=96a8ad0e|37=57518c05|150=0|39=0|1=ACC002|55=BTCUSD|54=2|15=USD|60=2023-03-09-09:35:57.159|59=3|10=192|
2023-03-09 09:35:58.387 [SystemA] (INFO) : 8=FIX.4.2|9=138|35=D|34=91|49=SystemA|52=20230309-09:35:58.387|56=DEST|11=156a82b7|1=ACC001|55=ETHUSD|54=2|15=USD|60=20230309-09:35:58.387|44=453.15|59=0|10=057|
2023-03-09 09:35:58.644 [SystemA] (INFO) : 8=FIX.4.2|9=171|35=8|34=92|49=DEST|52=20230309-09:35:58.387|56=SystemA|17=c6ac0a14|11=156a82b7|37=e57886e9|150=0|39=0|1=ACC001|55=ETHUSD|54=2|15=USD|60=2023-03-09-09:35:58.644|59=1|526=P|10=107|
2023-03-09 09:36:02.909 [SystemD] (INFO) : 8=FIX.4.4|9=157|35=8|34=81|49=ABC|52=20230309-09:35:35.073|56=SystemD|17=5fb508c2|11=2b111164|37=2d367e66|150=F|39=2|1=ACC001|55=GOOG|54=1|15=USD|60=2023-03-09-09:36:02.909|10=243|
2023-03-09 09:36:03.656 [SystemA] (INFO) : 8=FIX.4.2|9=123|35=D|34=94|49=SystemA|52=20230309-09:36:03.656|56=DEST|11=01809caa|1=ACC001|55=BTCUSD|54=2|15=USD|60=20230309-09:36:03.656|10=143|
2023-03-09 09:36:03.843 [SystemA] (INFO) : 8=FIX.4.2|9=166|35=8|34=95|49=DEST|52=20230309-09:36:03.656|56=SystemA|17=c8e761ce|11=01809caa|37=fa5c423a|150=0|39=0|1=ACC001|55=BTCUSD|54=2|15=USD|60=2023-03-09-09:36:03.843|102=N|10=237|
2023-03-09 09:36:08.922 [SystemB] (INFO) : 8=FIX.4.4|9=141|35=D|34=73|49=SystemB|52=20230309-09:36:08.922|56=DEST|11=fc41c1ba|1=ACC002|55=GOOG|54=1|15=USD|60=20230309-09:36:08.922|21=1|38=443|100=CME|10=016|
2023-03-09 09:36:09.399 [SystemB] (INFO) : 8=FIX.4.4|9=158|35=8|34=74|49=DEST|52=20230309-09:36:08.922|56=SystemB|17=510ee192|11=fc41c1ba|37=98250d04|150=0|39=0|1=ACC002|55=GOOG|54=1|15=USD|60=2023-03-09-09:36:09.399|10=174|
2023-03-09 09:36:11.622 [SystemA] (INFO) : 8=FIX.4.2|9=121|35=D|34=97|49=SystemA|52=20230309-09:36:11.622|56=DEST|11=01b93575|1=ACC003|55=GOOG|54=1|15=USD|60=20230309-09:36:11.622|10=145|
2023-03-09 09:36:11.924 [SystemA] (INFO) : 8=FIX.4.2|9=170|35=8|34=98|49=DEST|52=20230309-09:36:11.622|56=SystemA|17=157cc123|11=01b93575|37=41e00498|150=0|39=0|1=ACC003|55=GOOG|54=1|15=USD|60=2023-03-09-09:36:11.924|100=BINANCE|10=156|
2023-03-09 09:36:16.121 [SystemA] (INFO) : 8=FIX.4.4|9=160|35=8|34=90|49=DEST|52=20230309-09:35:57.064|56=SystemA|17=3ead8290|11=96a8ad0e|37=57518c05|150=F|39=2|1=ACC002|55=BTCUSD|54=2|15=USD|60=2023-03-09-09:36:16.121|10=086|
2023-03-09 09:36:16.163 [SystemD] (INFO) : 8=FIX.4.2|9=133|35=D|34=85|49=SystemD|52=20230309-09:36:16.163|56=ABC|11=40af3130|1=ACC003|55=AAPL|54=2|15=USD|60=20230309-09:36:16.163|59=0|100=CME|10=201|
2023-03-09 09:36:16.180 [SystemD] (INFO) : 8=FIX.4.2|9=157|35=8|34=86|49=ABC|52=20230309-09:36:16.163|56=SystemD|17=0282f4f6|11=40af3130|37=ca89a469|150=0|39=0|1=ACC003|55=AAPL|54=2|15=USD|60=2023-03-09-09:36:16.180|10=004|
2023-03-09 09:36:16.758 [SystemA] (INFO) : 8=FIX.4.4|9=160|35=8|34=87|49=DEST|52=20230309-09:35:51.839|56=SystemA|17=565ff825|11=6c85f4cd|37=bf08f1af|150=F|39=2|1=ACC002|55=EURUSD|54=2|15=USD|60=2023-03-09-09:36:16.758|10=031|
2023-03-09 09:36:21.094 [SystemC] (INFO) : 8=FIX.4.2|9=133|35=D|34=88|49=SystemC|52=20230309-09:36:21.094|56=DEST|11=e5f16fee|1=ACC003|55=GOOG|54=2|15=USD|60=20230309-09:36:21.094|22=8|38=101|10=123|
2023-03-09 09:36:21.367 [SystemC] (INFO) : 8=FIX.4.2|9=164|35=8|34=89|49=DEST|52=20230309-09:36:21.094|56=SystemC|17=e48d7100|11=e5f16fee|37=4380b46e|150=0|39=0|1=ACC003|55=GOOG|54=2|15=USD|60=2023-03-09-09:36:21.367|102=N|10=004|
2023-03-09 09:36:21.513 [SystemA] (INFO) : 8=FIX.4.2|9=160|35=8|34=93|49=DEST|52=20230309-09:35:58.387|56=SystemA|17=49c981b0|11=156a82b7|37=e57886e9|150=4|39=4|1=ACC001|55=ETHUSD|54=2|15=USD|60=2023-03-09-09:36:21.513|10=013|
2023-03-09 09:36:25.322 [SystemA] (INFO) : 8=FIX.4.2|9=127|35=D|34=100|49=SystemA|52=20230309-09:36:25.322|56=DEST|11=d22bc7e3|1=ACC001|55=GOOG|54=2|15=USD|60=20230309-09:36:25.322|59=0|10=035|
2023-03-09 09:36:25.442 [SystemA] (INFO) : 8=FIX.4.2|9=164|35=8|34=101|49=DEST|52=20230309-09:36:25.322|56=SystemA|17=df2ef599|11=d22bc7e3|37=d1f9607b|150=0|39=0|1=ACC001|55=GOOG|54=2|15=USD|60=2023-03-09-09:36:25.442|59=0|10=067|
2023-03-09 09:36:25.878 [SystemD] (INFO) : 8=FIX.4.4|9=165|35=8|34=84|49=ABC|52=20230309-09:35:44.772|56=SystemD|17=5e0ca6e2|11=bce339b5|37=8b063c7a|150=4|39=4|1=ACC002|55=EURUSD|54=2|15=USD|60=2023-03-09-09:36:25.878|102=Y|10=190|
2023-03-09 09:36:30.397 [SystemC] (INFO) : 8=FIX.4.4|9=121|35=D|34=91|49=SystemC|52=20230309-09:36:30.397|56=DEST|11=ac7ca8da|1=ACC002|55=AAPL|54=2|15=USD|60=20230309-09:36:30.397|10=129|
2023-03-09 09:36:30.614 [SystemC] (INFO) : 8=FIX.4.4|9=158|35=8|34=92|49=DEST|52=20230309-09:36:30.397|56=SystemC|17=0cf97dc6|11=ac7ca8da|37=b6b6742c|150=0|39=0|1=ACC002|55=AAPL|54=2|15=USD|60=2023-03-09-09:36:30.614|10=148|
2023-03-09 09:36:31.497 [SystemA] (INFO) : 8=FIX.4.2|9=168|35=8|34=96|49=DEST|52=20230309-09:36:03.656|56=SystemA|17=c55b1a67|11=01809caa|37=fa5c423a|150=4|39=4|1=ACC001|55=BTCUSD|54=2|15=USD|60=2023-03-09-09:36:31.497|100=CME|10=075|
2023-03-09 09:36:33.084 [SystemD] (INFO) : 8=FIX.4.4|9=148|35=D|34=88|49=SystemD|52=20230309-09:36:33.084|56=ABC|11=034f0cc5|1=ACC003|55=MSFT|54=2|15=USD|60=20230309-09:36:33.084|44=473.06|100=BINANCE|526=P|10=106|
2023-03-09 09:36:33.193 [SystemD] (INFO) : 8=FIX.4.4|9=162|35=8|34=89|49=ABC|52=20230309-09:36:33.084|56=SystemD|17=6a8c5b9c|11=034f0cc5|37=47149522|150=0|39=0|1=ACC003|55=MSFT|54=2|15=USD|60=2023-03-09-09:36:33.193|59=0|10=003|
2023-03-09 09:36:38.754 [SystemC] (INFO) : 8=FIX.4.4|9=152|35=D|34=94|49=SystemC|52=20230309-09:36:38.754|56=DEST|11=096c620d|1=ACC003|55=GOOG|54=1|15=USD|60=20230309-09:36:38.754|22=8|38=925|59=1|100=CME|526=A|10=162|
2023-03-09 09:36:38.755 [SystemC] (INFO) : 8=FIX.4.4|9=168|35=8|34=95|49=DEST|52=20230309-09:36:38.754|56=SystemC|17=bac84825|11=096c620d|37=3512dbb7|150=0|39=0|1=ACC003|55=GOOG|54=1|15=USD|60=2023-03-09-09:36:38.755|100=FOREX|10=019|
2023-03-09 09:36:42.222 [SystemD] (INFO) : 8=FIX.4.4|9=144|35=D|34=91|49=SystemD|52=20230309-09:36:42.222|56=ABC|11=381f9cdc|1=ACC001|55=EURUSD|54=2|15=USD|60=20230309-09:36:42.222|44=297.05|100=BINANCE|10=005|
2023-03-09 09:36:42.581 [SystemD] (INFO) : 8=FIX.4.4|9=164|35=8|34=92|49=ABC|52=20230309-09:36:42.222|56=SystemD|17=e5db8673|11=381f9cdc|37=855176f4|150=0|39=0|1=ACC001|55=EURUSD|54=2|15=USD|60=2023-03-09-09:36:42.581|59=3|10=225|
2023-03-09 09:36:44.383 [SystemB] (INFO) : 8=FIX.4.4|9=158|35=8|34=75|49=DEST|52=20230309-09:36:08.922|56=SystemB|17=f07a23d1|11=fc41c1ba|37=98250d04|150=4|39=4|1=ACC002|55=GOOG|54=1|15=USD|60=2023-03-09-09:36:44.383|10=219|
2023-03-09 09:36:45.686 [SystemC] (INFO) : 8=FIX.4.4|9=169|35=8|34=96|49=DEST|52=20230309-09:36:38.754|56=SystemC|17=2cd12d6c|11=096c620d|37=3512dbb7|150=F|39=2|1=ACC003|55=GOOG|54=1|15=USD|60=2023-03-09-09:36:45.686|59=0|102=Y|10=009|
2023-03-09 09:36:46.770 [SystemA] (INFO) : 8=FIX.4.2|9=175|35=8|34=99|49=DEST|52=20230309-09:36:11.622|56=SystemA|17=d29ee2e6|11=01b93575|37=41e00498|150=2|39=2|1=ACC003|55=GOOG|54=1|15=USD|60=2023-03-09-09:36:46.770|59=0|100=BINANCE|10=246|
2023-03-09 09:36:48.013 [SystemA] (INFO) : 8=FIX.4.4|9=135|35=D|34=103|49=SystemA|52=20230309-09:36:48.013|56=DEST|11=0f93aa7d|1=ACC001|55=EURUSD|54=1|15=USD|60=20230309-09:36:48.013|22=8|526=R|10=004|
2023-03-09 09:36:48.345 [SystemA] (INFO) : 8=FIX.4.4|9=171|35=8|34=104|49=DEST|52=20230309-09:36:48.013|56=SystemA|17=efbb0430|11=0f93aa7d|37=393c4543|150=0|39=0|1=ACC001|55=EURUSD|54=1|15=USD|60=2023-03-09-09:36:48.345|100=FOREX|10=251|
2023-03-09 09:36:51.375 [SystemD] (INFO) : 8=FIX.4.4|9=141|35=D|34=94|49=SystemD|52=20230309-09:36:51.375|56=ABC|11=e5f4e4d7|1=ACC002|55=EURUSD|54=1|15=USD|60=20230309-09:36:51.375|44=328.94|100=NYSE|10=108|
2023-03-09 09:36:51.379 [SystemC] (INFO) : 8=FIX.4.4|9=158|35=8|34=93|49=DEST|52=20230309-09:36:30.397|56=SystemC|17=a664ec60|11=ac7ca8da|37=b6b6742c|150=4|39=4|1=ACC002|55=AAPL|54=2|15=USD|60=2023-03-09-09:36:51.379|10=113|
2023-03-09 09:36:51.758 [SystemD] (INFO) : 8=FIX.4.4|9=159|35=8|34=95|49=ABC|52=20230309-09:36:51.375|56=SystemD|17=66387571|11=e5f4e4d7|37=ddfa03ee|150=0|39=0|1=ACC002|55=EURUSD|54=1|15=USD|60=2023-03-09-09:36:51.758|10=112|
2023-03-09 09:36:53.847 [SystemA] (INFO) : 8=FIX.4.4|9=141|35=D|34=106|49=SystemA|52=20230309-09:36:53.847|56=DEST|11=8386242d|1=ACC003|55=BTCUSD|54=2|15=USD|60=20230309-09:36:53.847|59=3|100=BINANCE|10=023|
2023-03-09 09:36:53.855 [SystemA] (INFO) : 8=FIX.4.4|9=161|35=8|34=107|49=DEST|52=20230309-09:36:53.847|56=SystemA|17=15a6b268|11=8386242d|37=a1fcf4e7|150=0|39=0|1=ACC003|55=BTCUSD|54=2|15=USD|60=2023-03-09-09:36:53.855|10=133|
2023-03-09 09:36:54.037 [SystemC] (INFO) : 8=FIX.4.2|9=158|35=8|34=90|49=DEST|52=20230309-09:36:21.094|56=SystemC|17=bbe0a22b|11=e5f16fee|37=4380b46e|150=4|39=4|1=ACC003|55=GOOG|54=2|15=USD|60=2023-03-09-09:36:54.037|10=107|
2023-03-09 09:36:55.027 [SystemD] (INFO) : 8=FIX.4.2|9=174|35=8|34=87|49=ABC|52=20230309-09:36:16.163|56=SystemD|17=7ae4d3e3|11=40af3130|37=ca89a469|150=4|39=4|1=ACC003|55=AAPL|54=2|15=USD|60=2023-03-09-09:36:55.027|59=3|100=BINANCE|10=011|
2023-03-09 09:36:56.329 [SystemA] (INFO) : 8=FIX.4.2|9=168|35=8|34=102|49=DEST|52=20230309-09:36:25.322|56=SystemA|17=0d9da495|11=d22bc7e3|37=d1f9607b|150=4|39=4|1=ACC001|55=GOOG|54=2|15=USD|60=2023-03-09-09:36:56.329|100=NYSE|10=080|
2023-03-09 09:36:57.097 [SystemA] (INFO) : 8=FIX.4.4|9=161|35=8|34=105|49=DEST|52=20230309-09:36:48.013|56=SystemA|17=cabaf52d|11=0f93aa7d|37=393c4543|150=4|39=4|1=ACC001|55=EURUSD|54=1|15=USD|60=2023-03-09-09:36:57.097|10=022|
2023-03-09 09:36:58.236 [SystemB] (INFO) : 8=FIX.4.4|9=138|35=D|34=76|49=SystemB|52=20230309-09:36:58.236|56=DEST|11=0e7bbd6f|1=ACC001|55=ETHUSD|54=2|15=USD|60=20230309-09:36:58.236|38=85|100=NYSE|10=053|
2023-03-09 09:36:58.277 [SystemB] (INFO) : 8=FIX.4.4|9=160|35=8|34=77|49=DEST|52=20230309-09:36:58.236|56=SystemB|17=40eb2791|11=0e7bbd6f|37=7329d871|150=0|39=0|1=ACC001|55=ETHUSD|54=2|15=USD|60=2023-03-09-09:36:58.277|10=099|
2023-03-09 09:37:01.551 [SystemB] (INFO) : 8=FIX.4.2|9=140|35=D|34=79|49=SystemB|52=20230309-09:37:01.551|56=DEST|11=bc6c48bc|1=ACC003|55=GBPUSD|54=1|15=USD|60=20230309-09:37:01.551|38=742|44=314.42|10=005|
2023-03-09 09:37:01.870 [SystemB] (INFO) : 8=FIX.4.2|9=160|35=8|34=80|49=DEST|52=20230309-09:37:01.551|56=SystemB|17=b373d8a3|11=bc6c48bc|37=cb702982|150=0|39=0|1=ACC003|55=GBPUSD|54=1|15=USD|60=2023-03-09-09:37:01.870|10=149|
2023-03-09 09:37:04.071 [SystemD] (INFO) : 8=FIX.4.4|9=166|35=8|34=90|49=ABC|52=20230309-09:36:33.084|56=SystemD|17=7d736b3d|11=034f0cc5|37=47149522|150=4|39=4|1=ACC003|55=MSFT|54=2|15=USD|60=2023-03-09-09:37:04.071|100=NYSE|10=002|
2023-03-09 09:37:06.927 [SystemB] (INFO) : 8=FIX.4.2|9=141|35=D|34=82|49=SystemB|52=20230309-09:37:06.927|56=DEST|11=022f8cfa|1=ACC003|55=BTCUSD|54=2|15=USD|60=20230309-09:37:06.927|22=8|38=322|102=N|10=007|
2023-03-09 09:37:07.399 [SystemB] (INFO) : 8=FIX.4.2|9=169|35=8|34=83|49=DEST|52=20230309-09:37:06.927|56=SystemB|17=450f518c|11=022f8cfa|37=ec164666|150=0|39=0|1=ACC003|55=BTCUSD|54=2|15=USD|60=2023-03-09-09:37:07.399|100=XNAS|10=101|
2023-03-09 09:37:09.097 [SystemB] (INFO) : 8=FIX.4.4|9=166|35=8|34=78|49=DEST|52=20230309-09:36:58.236|56=SystemB|17=ad1be7c2|11=0e7bbd6f|37=7329d871|150=4|39=4|1=ACC001|55=ETHUSD|54=2|15=USD|60=2023-03-09-09:37:09.097|102=N|10=025|
2023-03-09 09:37:09.569 [SystemB] (INFO) : 8=FIX.4.2|9=160|35=8|34=81|49=DEST|52=20230309-09:37:01.551|56=SystemB|17=3efb950a|11=bc6c48bc|37=cb702982|150=4|39=4|1=ACC003|55=GBPUSD|54=1|15=USD|60=2023-03-09-09:37:09.569|10=219|
2023-03-09 09:37:11.691 [SystemA] (INFO) : 8=FIX.4.2|9=134|35=D|34=109|49=SystemA|52=20230309-09:37:11.691|56=DEST|11=96040a3b|1=ACC003|55=BTCUSD|54=1|15=USD|60=20230309-09:37:11.691|22=8|59=3|10=072|
2023-03-09 09:37:11.945 [SystemA] (INFO) : 8=FIX.4.2|9=178|35=8|34=110|49=DEST|52=20230309-09:37:11.691|56=SystemA|17=6ca3f58e|11=96040a3b|37=0fcfe2c0|150=0|39=0|1=ACC003|55=BTCUSD|54=1|15=USD|60=2023-03-09-09:37:11.945|59=3|100=BINANCE|10=151|
2023-03-09 09:37:14.181 [SystemB] (INFO) : 8=FIX.4.2|9=160|35=8|34=84|49=DEST|52=20230309-09:37:06.927|56=SystemB|17=0814a110|11=022f8cfa|37=ec164666|150=4|39=4|1=ACC003|55=BTCUSD|54=2|15=USD|60=2023-03-09-09:37:14.181|10=015|
2023-03-09 09:37:15.385 [SystemD] (INFO) : 8=FIX.4.4|9=164|35=8|34=93|49=ABC|52=20230309-09:36:42.222|56=SystemD|17=19de8902|11=381f9cdc|37=855176f4|150=4|39=4|1=ACC001|55=EURUSD|54=2|15=USD|60=2023-03-09-09:37:15.385|59=0|10=184|
2023-03-09 09:37:15.551 [SystemA] (INFO) : 8=FIX.4.4|9=161|35=8|34=108|49=DEST|52=20230309-09:36:53.847|56=SystemA|17=89f7d2ab|11=8386242d|37=a1fcf4e7|150=F|39=2|1=ACC003|55=BTCUSD|54=2|15=USD|60=2023-03-09-09:37:15.551|10=254|
2023-03-09 09:37:17.171 [SystemC] (INFO) : 8=FIX.4.2|9=123|35=D|34=97|49=SystemC|52=20230309-09:37:17.171|56=DEST|11=cc044ae8|1=ACC001|55=GBPUSD|54=2|15=USD|60=20230309-09:37:17.171|10=197|
2023-03-09 09:37:17.206 [SystemC] (INFO) : 8=FIX.4.2|9=160|35=8|34=98|49=DEST|52=20230309-09:37:17.171|56=SystemC|17=90d5076b|11=cc044ae8|37=57078933|150=0|39=0|1=ACC001|55=GBPUSD|54=2|15=USD|60=2023-03-09-09:37:17.206|10=235|
2023-03-09 09:37:19.058 [SystemB] (INFO) : 8=FIX.4.4|9=133|35=D|34=85|49=SystemB|52=20230309-09:37:19.058|56=DEST|11=413b4906|1=ACC003|55=ETHUSD|54=1|15=USD|60=20230309-09:37:19.058|100=FOREX|10=157|
2023-03-09 09:37:19.060 [SystemB] (INFO) : 8=FIX.4.4|9=166|35=8|34=86|49=DEST|52=20230309-09:37:19.058|56=SystemB|17=c2130c6c|11=413b4906|37=e79e31e5|150=0|39=0|1=ACC003|55=ETHUSD|54=1|15=USD|60=2023-03-09-09:37:19.060|102=Y|10=075|
2023-03-09 09:37:23.599 [SystemD] (INFO) : 8=FIX.4.4|9=126|35=D|34=97|49=SystemD|52=20230309-09:37:23.599|56=ABC|11=7537ea8b|1=ACC002|55=AAPL|54=1|15=USD|60=20230309-09:37:23.599|102=N|10=201|
2023-03-09 09:37:23.639 [SystemD] (INFO) : 8=FIX.4.4|9=166|35=8|34=98|49=ABC|52=20230309-09:37:23.599|56=SystemD|17=c8e3702b|11=7537ea8b|37=87dde442|150=0|39=0|1=ACC002|55=AAPL|54=1|15=USD|60=2023-03-09-09:37:23.639|100=XNAS|10=145|
2023-03-09 09:37:27.451 [SystemD] (INFO) : 8=FIX.4.2|9=121|35=D|34=100|49=SystemD|52=20230309-09:37:27.451|56=ABC|11=ae1aa80e|1=ACC001|55=MSFT|54=2|15=USD|60=20230309-09:37:27.451|10=030|
2023-03-09 09:37:27.536 [SystemD] (INFO) : 8=FIX.4.2|9=164|35=8|34=101|49=ABC|52=20230309-09:37:27.451|56=SystemD|17=1e97f16c|11=ae1aa80e|37=92698fa6|150=0|39=0|1=ACC001|55=MSFT|54=2|15=USD|60=2023-03-09-09:37:27.536|526=R|10=022|
2023-03-09 09:37:29.525 [SystemD] (INFO) : 8=FIX.4.4|9=121|35=D|34=103|49=SystemD|52=20230309-09:37:29.525|56=ABC|11=5f92a8bc|1=ACC003|55=GOOG|54=1|15=USD|60=20230309-09:37:29.525|10=252|
2023-03-09 09:37:29.729 [SystemD] (INFO) : 8=FIX.4.4|9=168|35=8|34=96|49=ABC|52=20230309-09:36:51.375|56=SystemD|17=e1221ee3|11=e5f4e4d7|37=ddfa03ee|150=F|39=2|1=ACC002|55=EURUSD|54=1|15=USD|60=2023-03-09-09:37:29.729|100=NYSE|10=024|
2023-03-09 09:37:29.890 [SystemD] (INFO) : 8=FIX.4.4|9=173|35=8|34=104|49=ABC|52=20230309-09:37:29.525|56=SystemD|17=1cc4615d|11=5f92a8bc|37=5174b3ef|150=0|39=0|1=ACC003|55=GOOG|54=1|15=USD|60=2023-03-09-09:37:29.890|100=XNAS|526=R|10=021|
2023-03-09 09:37:32.441 [SystemD] (INFO) : 8=FIX.4.2|9=158|35=8|34=102|49=ABC|52=20230309-09:37:27.451|56=SystemD|17=f6881d60|11=ae1aa80e|37=92698fa6|150=2|39=2|1=ACC001|55=MSFT|54=2|15=USD|60=2023-03-09-09:37:32.441|10=185|
2023-03-09 09:37:32.502 [SystemA] (INFO) : 8=FIX.4.2|9=134|35=D|34=112|49=SystemA|52=20230309-09:37:32.502|56=DEST|11=a176a658|1=ACC003|55=GOOG|54=1|15=USD|60=20230309-09:37:32.502|102=Y|526=A|10=052|
2023-03-09 09:37:32.948 [SystemA] (INFO) : 8=FIX.4.2|9=159|35=8|34=113|49=DEST|52=20230309-09:37:32.502|56=SystemA|17=f80a32cf|11=a176a658|37=a61c35b8|150=0|39=0|1=ACC003|55=GOOG|54=1|15=USD|60=2023-03-09-09:37:32.948|10=008|
2023-03-09 09:37:36.657 [SystemD] (INFO) : 8=FIX.4.4|9=141|35=D|34=106|49=SystemD|52=20230309-09:37:36.657|56=ABC|11=437a8ab2|1=ACC001|55=GOOG|54=2|15=USD|60=20230309-09:37:36.657|21=1|22=8|100=FOREX|10=207|
2023-03-09 09:37:37.008 [SystemD] (INFO) : 8=FIX.4.4|9=169|35=8|34=107|49=ABC|52=20230309-09:37:36.657|56=SystemD|17=ce60b6c2|11=437a8ab2|37=abd78c7b|150=0|39=0|1=ACC001|55=GOOG|54=2|15=USD|60=2023-03-09-09:37:37.008|59=0|102=N|10=052|
2023-03-09 09:37:37.656 [SystemA] (INFO) : 8=FIX.4.2|9=161|35=8|34=111|49=DEST|52=20230309-09:37:11.691|56=SystemA|17=80ea2d0c|11=96040a3b|37=0fcfe2c0|150=4|39=4|1=ACC003|55=BTCUSD|54=1|15=USD|60=2023-03-09-09:37:37.656|10=243|
2023-03-09 09:37:41.565 [SystemD] (INFO) : 8=FIX.4.4|9=157|35=8|34=99|49=ABC|52=20230309-09:37:23.599|56=SystemD|17=19464d66|11=7537ea8b|37=87dde442|150=F|39=2|1=ACC002|55=AAPL|54=1|15=USD|60=2023-03-09-09:37:41.565|10=073|
2023-03-09 09:37:41.789 [SystemC] (INFO) : 8=FIX.4.4|9=132|35=D|34=100|49=SystemC|52=20230309-09:37:41.789|56=DEST|11=bb3d75d3|1=ACC002|55=GOOG|54=2|15=USD|60=20230309-09:37:41.789|21=1|22=8|10=022|
2023-03-09 09:37:41.964 [SystemC] (INFO) : 8=FIX.4.4|9=159|35=8|34=101|49=DEST|52=20230309-09:37:41.789|56=SystemC|17=2266fe45|11=bb3d75d3|37=134b9324|150=0|39=0|1=ACC002|55=GOOG|54=2|15=USD|60=2023-03-09-09:37:41.964|10=185|
2023-03-09 09:37:43.143 [SystemA] (INFO) : 8=FIX.4.2|9=135|35=D|34=115|49=SystemA|52=20230309-09:37:43.143|56=DEST|11=6aa19c17|1=ACC001|55=GBPUSD|54=1|15=USD|60=20230309-09:37:43.143|21=1|526=A|10=167|
2023-03-09 09:37:43.307 [SystemA] (INFO) : 8=FIX.4.2|9=167|35=8|34=116|49=DEST|52=20230309-09:37:43.143|56=SystemA|17=616334ce|11=6aa19c17|37=238872bf|150=0|39=0|1=ACC001|55=GBPUSD|54=1|15=USD|60=2023-03-09-09:37:43.307|102=Y|10=106|
2023-03-09 09:37:45.867 [SystemD] (INFO) : 8=FIX.4.4|9=164|35=8|34=108|49=ABC|52=20230309-09:37:36.657|56=SystemD|17=1b0a0ac6|11=437a8ab2|37=abd78c7b|150=F|39=2|1=ACC001|55=GOOG|54=2|15=USD|60=2023-03-09-09:37:45.867|102=Y|10=118|
2023-03-09 09:37:47.376 [SystemB] (INFO) : 8=FIX.4.4|9=133|35=D|34=88|49=SystemB|52=20230309-09:37:47.376|56=DEST|11=87ef1cee|1=ACC001|55=BTCUSD|54=2|15=USD|60=20230309-09:37:47.376|44=476.55|10=246|
2023-03-09 09:37:47.591 [SystemB] (INFO) : 8=FIX.4.4|9=160|35=8|34=89|49=DEST|52=20230309-09:37:47.376|56=SystemB|17=152d3277|11=87ef1cee|37=4ed60da6|150=0|39=0|1=ACC001|55=BTCUSD|54=2|15=USD|60=2023-03-09-09:37:47.591|10=190|
2023-03-09 09:37:52.895 [SystemA] (INFO) : 8=FIX.4.2|9=141|35=D|34=118|49=SystemA|52=20230309-09:37:52.895|56=DEST|11=50a05515|1=ACC002|55=ETHUSD|54=2|15=USD|60=20230309-09:37:52.895|38=236|100=FOREX|10=015|
2023-03-09 09:37:53.006 [SystemA] (INFO) : 8=FIX.4.2|9=166|35=8|34=119|49=DEST|52=20230309-09:37:52.895|56=SystemA|17=6181eaf4|11=50a05515|37=a19dee89|150=0|39=0|1=ACC002|55=ETHUSD|54=2|15=USD|60=2023-03-09-09:37:53.006|59=3|10=100|
2023-03-09 09:37:55.801 [SystemA] (INFO) : 8=FIX.4.2|9=124|35=D|34=121|49=SystemA|52=20230309-09:37:55.801|56=DEST|11=82273401|1=ACC001|55=GBPUSD|54=2|15=USD|60=20230309-09:37:55.801|10=043|
2023-03-09 09:37:56.257 [SystemA] (INFO) : 8=FIX.4.2|9=176|35=8|34=122|49=DEST|52=20230309-09:37:55.801|56=SystemA|17=72e21840|11=82273401|37=09444ffe|150=0|39=0|1=ACC001|55=GBPUSD|54=2|15=USD|60=2023-03-09-09:37:56.257|100=NYSE|102=Y|10=238|
2023-03-09 09:37:56.933 [SystemC] (INFO) : 8=FIX.4.2|9=160|35=8|34=99|49=DEST|52=20230309-09:37:17.171|56=SystemC|17=13ea4878|11=cc044ae8|37=57078933|150=4|39=4|1=ACC001|55=GBPUSD|54=2|15=USD|60=2023-03-09-09:37:56.933|10=002|
2023-03-09 09:37:57.599 [SystemC] (INFO) : 8=FIX.4.4|9=124|35=D|34=103|49=SystemC|52=20230309-09:37:57.599|56=DEST|11=93748d46|1=ACC002|55=EURUSD|54=1|15=USD|60=20230309-09:37:57.599|10=164|
2023-03-09 09:37:57.793 [SystemC] (INFO) : 8=FIX.4.4|9=170|35=8|34=104|49=DEST|52=20230309-09:37:57.599|56=SystemC|17=8bda7172|11=93748d46|37=7fdc1589|150=0|39=0|1=ACC002|55=EURUSD|54=1|15=USD|60=2023-03-09-09:37:57.793|100=NYSE|10=149|
2023-03-09 09:37:57.923 [SystemA] (INFO) : 8=FIX.4.2|9=172|35=8|34=117|49=DEST|52=20230309-09:37:43.143|56=SystemA|17=931c4336|11=6aa19c17|37=238872bf|150=2|39=2|1=ACC001|55=GBPUSD|54=1|15=USD|60=2023-03-09-09:37:57.923|59=1|102=N|10=023|
2023-03-09 09:37:58.819 [SystemD] (INFO) : 8=FIX.4.4|9=168|35=8|34=105|49=ABC|52=20230309-09:37:29.525|56=SystemD|17=0c04b0bc|11=5f92a8bc|37=5174b3ef|150=F|39=2|1=ACC003|55=GOOG|54=1|15=USD|60=2023-03-09-09:37:58.819|100=FOREX|10=117|
2023-03-09 09:37:59.766 [SystemB] (INFO) : 8=FIX.4.4|9=160|35=8|34=87|49=DEST|52=20230309-09:37:19.058|56=SystemB|17=2b45393e|11=413b4906|37=e79e31e5|150=4|39=4|1=ACC003|55=ETHUSD|54=1|15=USD|60=2023-03-09-09:37:59.766|10=017|
2023-03-09 09:37:59.862 [SystemA] (INFO) : 8=FIX.4.2|9=161|35=8|34=120|49=DEST|52=20230309-09:37:52.895|56=SystemA|17=e6281fe3|11=50a05515|37=a19dee89|150=4|39=4|1=ACC002|55=ETHUSD|54=2|15=USD|60=2023-03-09-09:37:59.862|10=148|
2023-03-09 09:37:59.933 [SystemB] (INFO) : 8=FIX.4.4|9=134|35=D|34=91|49=SystemB|52=20230309-09:37:59.933|56=DEST|11=0dc40274|1=ACC002|55=ETHUSD|54=1|15=USD|60=20230309-09:37:59.933|21=1|102=N|10=111|
2023-03-09 09:38:00.296 [SystemB] (INFO) : 8=FIX.4.4|9=160|35=8|34=92|49=DEST|52=20230309-09:37:59.933|56=SystemB|17=82532ae5|11=0dc40274|37=b8d69790|150=0|39=0|1=ACC002|55=ETHUSD|54=1|15=USD|60=2023-03-09-09:38:00.296|10=249|
2023-03-09 09:38:02.094 [SystemB] (INFO) : 8=FIX.4.4|9=166|35=8|34=93|49=DEST|52=20230309-09:37:59.933|56=SystemB|17=c264dda8|11=0dc40274|37=b8d69790|150=4|39=4|1=ACC002|55=ETHUSD|54=1|15=USD|60=2023-03-09-09:38:02.094|102=N|10=134|
2023-03-09 09:38:02.269 [SystemB] (INFO) : 8=FIX.4.4|9=144|35=D|34=94|49=SystemB|52=20230309-09:38:02.269|56=DEST|11=6f8c636f|1=ACC003|55=BTCUSD|54=1|15=USD|60=20230309-09:38:02.269|21=1|100=FOREX|102=N|10=241|
2023-03-09 09:38:02.714 [SystemB] (INFO) : 8=FIX.4.4|9=160|35=8|34=95|49=DEST|52=20230309-09:38:02.269|56=SystemB|17=763bf68f|11=6f8c636f|37=d13f601e|150=0|39=0|1=ACC003|55=BTCUSD|54=1|15=USD|60=2023-03-09-09:38:02.714|10=135|
2023-03-09 09:38:02.918 [SystemA] (INFO) : 8=FIX.4.2|9=159|35=8|34=114|49=DEST|52=20230309-09:37:32.502|56=SystemA|17=63f64eec|11=a176a658|37=a61c35b8|150=4|39=4|1=ACC003|55=GOOG|54=1|15=USD|60=2023-03-09-09:38:02.918|10=021|
2023-03-09 09:38:03.789 [SystemA] (INFO) : 8=FIX.4.4|9=140|35=D|34=124|49=SystemA|52=20230309-09:38:03.789|56=DEST|11=4c8b37b6|1=ACC003|55=BTCUSD|54=2|15=USD|60=20230309-09:38:03.789|44=344.08|526=P|10=220|
2023-03-09 09:38:04.113 [SystemA] (INFO) : 8=FIX.4.4|9=161|35=8|34=125|49=DEST|52=20230309-09:38:03.789|56=SystemA|17=55f62e3b|11=4c8b37b6|37=dc3cc8e4|150=0|39=0|1=ACC003|55=BTCUSD|54=2|15=USD|60=2023-03-09-09:38:04.113|10=009|
2023-03-09 09:38:05.237 [SystemA] (INFO) : 8=FIX.4.2|9=167|35=8|34=123|49=DEST|52=20230309-09:37:55.801|56=SystemA|17=1d40d1c7|11=82273401|37=09444ffe|150=2|39=2|1=ACC001|55=GBPUSD|54=2|15=USD|60=2023-03-09-09:38:05.237|102=Y|10=057|
2023-03-09 09:38:09.070 [SystemD] (INFO) : 8=FIX.4.4|9=121|35=D|34=109|49=SystemD|52=20230309-09:38:09.070|56=ABC|11=935ad340|1=ACC002|55=MSFT|54=2|15=USD|60=20230309-09:38:09.070|10=157|
2023-03-09 09:38:09.476 [SystemD] (INFO) : 8=FIX.4.4|9=174|35=8|34=110|49=ABC|52=20230309-09:38:09.070|56=SystemD|17=27a04410|11=935ad340|37=f00c8784|150=0|39=0|1=ACC002|55=MSFT|54=2|15=USD|60=2023-03-09-09:38:09.476|100=FOREX|526=P|10=102|
2023-03-09 09:38:12.892 [SystemC] (INFO) : 8=FIX.4.2|9=145|35=D|34=106|49=SystemC|52=20230309-09:38:12.892|56=DEST|11=ab01dbbe|1=ACC001|55=GOOG|54=1|15=USD|60=20230309-09:38:12.892|59=3|100=BINANCE|102=N|10=116|
2023-03-09 09:38:12.931 [SystemC] (INFO) : 8=FIX.4.4|9=159|35=8|34=102|49=DEST|52=20230309-09:37:41.789|56=SystemC|17=2625b65b|11=bb3d75d3|37=134b9324|150=F|39=2|1=ACC002|55=GOOG|54=2|15=USD|60=2023-03-09-09:38:12.931|10=197|
2023-03-09 09:38:13.005 [SystemC] (INFO) : 8=FIX.4.2|9=178|35=8|34=107|49=DEST|52=20230309-09:38:12.892|56=SystemC|17=8936ead3|11=ab01dbbe|37=418d041d|150=0|39=0|1=ACC001|55=GOOG|54=1|15=USD|60=2023-03-09-09:38:13.005|59=1|100=CME|526=R|10=010|
2023-03-09 09:38:14.018 [SystemA] (INFO) : 8=FIX.4.2|9=128|35=D|34=127|49=SystemA|52=20230309-09:38:14.018|56=DEST|11=48453816|1=ACC001|55=MSFT|54=2|15=USD|60=20230309-09:38:14.018|526=P|10=217|
2023-03-09 09:38:14.387 [SystemA] (INFO) : 8=FIX.4.2|9=175|35=8|34=128|49=DEST|52=20230309-09:38:14.018|56=SystemA|17=fce8a091|11=48453816|37=35832435|150=0|39=0|1=ACC001|55=MSFT|54=2|15=USD|60=2023-03-09-09:38:14.387|100=FOREX|526=P|10=180|
2023-03-09 09:38:15.490 [SystemC] (INFO) : 8=FIX.4.2|9=145|35=D|34=109|49=SystemC|52=20230309-09:38:15.490|56=DEST|11=4874cae4|1=ACC002|55=ETHUSD|54=1|15=USD|60=20230309-09:38:15.490|100=XNAS|102=Y|526=A|10=040|
2023-03-09 09:38:15.608 [SystemC] (INFO) : 8=FIX.4.2|9=172|35=8|34=110|49=DEST|52=20230309-09:38:15.490|56=SystemC|17=2759c46b|11=4874cae4|37=bb1524ec|150=0|39=0|1=ACC002|55=ETHUSD|54=1|15=USD|60=2023-03-09-09:38:15.608|59=0|102=N|10=165|
2023-03-09 09:38:16.477 [SystemB] (INFO) : 8=FIX.4.4|9=165|35=8|34=96|49=DEST|52=20230309-09:38:02.269|56=SystemB|17=de07bd4f|11=6f8c636f|37=d13f601e|150=F|39=2|1=ACC003|55=BTCUSD|54=1|15=USD|60=2023-03-09-09:38:16.477|59=3|10=227|
2023-03-09 09:38:20.474 [SystemA] (INFO) : 8=FIX.4.4|9=127|35=D|34=130|49=SystemA|52=20230309-09:38:20.474|56=DEST|11=4368907d|1=ACC001|55=MSFT|54=1|15=USD|60=20230309-09:38:20.474|59=0|10=188|
2023-03-09 09:38:20.606 [SystemA] (INFO) : 8=FIX.4.4|9=165|35=8|34=131|49=DEST|52=20230309-09:38:20.474|56=SystemA|17=17567720|11=4368907d|37=b661f7dd|150=0|39=0|1=ACC001|55=MSFT|54=1|15=USD|60=2023-03-09-09:38:20.606|526=R|10=142|
2023-03-09 09:38:21.346 [SystemB] (INFO) : 8=FIX.4.4|9=173|35=8|34=90|49=DEST|52=20230309-09:37:47.376|56=SystemB|17=b394a9c7|11=87ef1cee|37=4ed60da6|150=4|39=4|1=ACC001|55=BTCUSD|54=2|15=USD|60=2023-03-09-09:38:21.346|59=0|100=CME|10=160|
2023-03-09 09:38:26.254 [SystemD] (INFO) : 8=FIX.4.2|9=126|35=D|34=112|49=SystemD|52=20230309-09:38:26.254|56=ABC|11=528c378b|1=ACC002|55=AAPL|54=1|15=USD|60=20230309-09:38:26.254|59=3|10=107|
2023-03-09 09:38:26.561 [SystemD] (INFO) : 8=FIX.4.2|9=158|35=8|34=113|49=ABC|52=20230309-09:38:26.254|56=SystemD|17=a2e701d1|11=528c378b|37=2254e2ec|150=0|39=0|1=ACC002|55=AAPL|54=1|15=USD|60=2023-03-09-09:38:26.561|10=094|
2023-03-09 09:38:27.683 [SystemA] (INFO) : 8=FIX.4.4|9=139|35=D|34=133|49=SystemA|52=20230309-09:38:27.683|56=DEST|11=1ba8d46c|1=ACC002|55=BTCUSD|54=1|15=USD|60=20230309-09:38:27.683|100=NYSE|526=A|10=050|
2023-03-09 09:38:28.038 [SystemA] (INFO) : 8=FIX.4.4|9=166|35=8|34=126|49=DEST|52=20230309-09:38:03.789|56=SystemA|17=0c9410ba|11=4c8b37b6|37=dc3cc8e4|150=F|39=2|1=ACC003|55=BTCUSD|54=2|15=USD|60=2023-03-09-09:38:28.038|59=3|10=004|
2023-03-09 09:38:28.126 [SystemA] (INFO) : 8=FIX.4.4|9=161|35=8|34=134|49=DEST|52=20230309-09:38:27.683|56=SystemA|17=ccafa315|11=1ba8d46c|37=ec87188c|150=0|39=0|1=ACC002|55=BTCUSD|54=1|15=USD|60=2023-03-09-09:38:28.126|10=057|
2023-03-09 09:38:28.223 [SystemA] (INFO) : 8=FIX.4.4|9=159|35=8|34=132|49=DEST|52=20230309-09:38:20.474|56=SystemA|17=f61e32d3|11=4368907d|37=b661f7dd|150=4|39=4|1=ACC001|55=MSFT|54=1|15=USD|60=2023-03-09-09:38:28.223|10=251|
2023-03-09 09:38:29.781 [SystemD] (INFO) : 8=FIX.4.4|9=133|35=D|34=115|49=SystemD|52=20230309-09:38:29.781|56=ABC|11=1d93b08d|1=ACC003|55=ETHUSD|54=2|15=USD|60=20230309-09:38:29.781|21=1|22=8|10=037|
2023-03-09 09:38:30.109 [SystemD] (INFO) : 8=FIX.4.4|9=160|35=8|34=116|49=ABC|52=20230309-09:38:29.781|56=SystemD|17=af382ec6|11=1d93b08d|37=6604abad|150=0|39=0|1=ACC003|55=ETHUSD|54=2|15=USD|60=2023-03-09-09:38:30.109|10=160|
2023-03-09 09:38:30.637 [SystemC] (INFO) : 8=FIX.4.2|9=170|35=8|34=108|49=DEST|52=20230309-09:38:12.892|56=SystemC|17=0577fd3a|11=ab01dbbe|37=418d041d|150=2|39=2|1=ACC001|55=GOOG|54=1|15=USD|60=2023-03-09-09:38:30.637|59=1|102=N|10=089|
